{
	"contracts/core/system/flattened/BKSOpsRegister_flattened.sol": {
		"BKSOpsRegister": {
			"abi": [
				{
					"inputs": [
						{
							"internalType": "address",
							"name": "_admin",
							"type": "address"
						}
					],
					"stateMutability": "nonpayable",
					"type": "constructor"
				},
				{
					"inputs": [
						{
							"internalType": "string",
							"name": "_name",
							"type": "string"
						},
						{
							"internalType": "address",
							"name": "_address",
							"type": "address"
						},
						{
							"internalType": "bool",
							"name": "_isSystemAddress",
							"type": "bool"
						}
					],
					"name": "addAddress",
					"outputs": [
						{
							"internalType": "bool",
							"name": "_added",
							"type": "bool"
						}
					],
					"stateMutability": "nonpayable",
					"type": "function"
				},
				{
					"inputs": [
						{
							"internalType": "address",
							"name": "_address",
							"type": "address"
						},
						{
							"internalType": "bool",
							"name": "_isSystemAddress",
							"type": "bool"
						}
					],
					"name": "addBKSVersionAddress",
					"outputs": [
						{
							"internalType": "bool",
							"name": "_added",
							"type": "bool"
						}
					],
					"stateMutability": "nonpayable",
					"type": "function"
				},
				{
					"inputs": [
						{
							"internalType": "address",
							"name": "_newAdmin",
							"type": "address"
						}
					],
					"name": "changeAdmin",
					"outputs": [
						{
							"internalType": "bool",
							"name": "_changed",
							"type": "bool"
						}
					],
					"stateMutability": "nonpayable",
					"type": "function"
				},
				{
					"inputs": [
						{
							"internalType": "string",
							"name": "_name",
							"type": "string"
						}
					],
					"name": "getAddress",
					"outputs": [
						{
							"internalType": "address",
							"name": "_address",
							"type": "address"
						}
					],
					"stateMutability": "view",
					"type": "function"
				},
				{
					"inputs": [],
					"name": "getAddresses",
					"outputs": [
						{
							"internalType": "string[]",
							"name": "_name",
							"type": "string[]"
						},
						{
							"internalType": "address[]",
							"name": "_address",
							"type": "address[]"
						}
					],
					"stateMutability": "view",
					"type": "function"
				},
				{
					"inputs": [],
					"name": "getName",
					"outputs": [
						{
							"internalType": "string",
							"name": "_name",
							"type": "string"
						}
					],
					"stateMutability": "pure",
					"type": "function"
				},
				{
					"inputs": [
						{
							"internalType": "address",
							"name": "_address",
							"type": "address"
						}
					],
					"name": "getName",
					"outputs": [
						{
							"internalType": "string",
							"name": "_name",
							"type": "string"
						}
					],
					"stateMutability": "view",
					"type": "function"
				},
				{
					"inputs": [],
					"name": "getNames",
					"outputs": [
						{
							"internalType": "string[]",
							"name": "_names",
							"type": "string[]"
						}
					],
					"stateMutability": "view",
					"type": "function"
				},
				{
					"inputs": [],
					"name": "getVersion",
					"outputs": [
						{
							"internalType": "uint256",
							"name": "_version",
							"type": "uint256"
						}
					],
					"stateMutability": "pure",
					"type": "function"
				},
				{
					"inputs": [
						{
							"internalType": "address",
							"name": "_address",
							"type": "address"
						}
					],
					"name": "isSystemAddress",
					"outputs": [
						{
							"internalType": "bool",
							"name": "_isSystemAddress",
							"type": "bool"
						}
					],
					"stateMutability": "view",
					"type": "function"
				}
			],
			"devdoc": {
				"author": "cryptotwilight",
				"custom:buidl": "Buidl Up 2023 https://www.buidlbox.io",
				"custom:contact": "@blockstarlogic1 (Twitter)",
				"details": "This is the Operations Register implementation for the Black Sock decentralized social protocol",
				"kind": "dev",
				"methods": {},
				"title": "Black Sock - Operations Register",
				"version": 1
			},
			"evm": {
				"assembly": "    /* \"contracts/core/system/flattened/BKSOpsRegister_flattened.sol\":1921:4470  contract BKSOpsRegister is IBKSOpsRegister, IBKSVersion {... */\n  mstore(0x40, 0x80)\n    /* \"contracts/core/system/flattened/BKSOpsRegister_flattened.sol\":2360:2423  constructor(address _admin) { ... */\n  callvalue\n  dup1\n  iszero\n  tag_1\n  jumpi\n  0x00\n  dup1\n  revert\ntag_1:\n  pop\n  mload(0x40)\n  sub(codesize, bytecodeSize)\n  dup1\n  bytecodeSize\n  dup4\n  codecopy\n  dup2\n  add\n  0x40\n  dup2\n  swap1\n  mstore\n  tag_2\n  swap2\n  tag_3\n  jump\t// in\ntag_2:\n    /* \"contracts/core/system/flattened/BKSOpsRegister_flattened.sol\":2400:2405  admin */\n  0x00\n    /* \"contracts/core/system/flattened/BKSOpsRegister_flattened.sol\":2400:2414  admin = _admin */\n  dup1\n  sload\n  not(sub(shl(0xa0, 0x01), 0x01))\n  and\n  sub(shl(0xa0, 0x01), 0x01)\n  swap3\n  swap1\n  swap3\n  and\n  swap2\n  swap1\n  swap2\n  or\n  swap1\n  sstore\n    /* \"contracts/core/system/flattened/BKSOpsRegister_flattened.sol\":1921:4470  contract BKSOpsRegister is IBKSOpsRegister, IBKSVersion {... */\n  jump(tag_7)\n    /* \"#utility.yul\":14:304   */\ntag_3:\n    /* \"#utility.yul\":84:90   */\n  0x00\n    /* \"#utility.yul\":137:139   */\n  0x20\n    /* \"#utility.yul\":125:134   */\n  dup3\n    /* \"#utility.yul\":116:123   */\n  dup5\n    /* \"#utility.yul\":112:135   */\n  sub\n    /* \"#utility.yul\":108:140   */\n  slt\n    /* \"#utility.yul\":105:157   */\n  iszero\n  tag_9\n  jumpi\n    /* \"#utility.yul\":153:154   */\n  0x00\n    /* \"#utility.yul\":150:151   */\n  dup1\n    /* \"#utility.yul\":143:155   */\n  revert\n    /* \"#utility.yul\":105:157   */\ntag_9:\n    /* \"#utility.yul\":179:195   */\n  dup2\n  mload\n  sub(shl(0xa0, 0x01), 0x01)\n    /* \"#utility.yul\":224:255   */\n  dup2\n  and\n    /* \"#utility.yul\":214:256   */\n  dup2\n  eq\n    /* \"#utility.yul\":204:274   */\n  tag_10\n  jumpi\n    /* \"#utility.yul\":270:271   */\n  0x00\n    /* \"#utility.yul\":267:268   */\n  dup1\n    /* \"#utility.yul\":260:272   */\n  revert\n    /* \"#utility.yul\":204:274   */\ntag_10:\n    /* \"#utility.yul\":293:298   */\n  swap4\n    /* \"#utility.yul\":14:304   */\n  swap3\n  pop\n  pop\n  pop\n  jump\t// out\ntag_7:\n    /* \"contracts/core/system/flattened/BKSOpsRegister_flattened.sol\":1921:4470  contract BKSOpsRegister is IBKSOpsRegister, IBKSVersion {... */\n  dataSize(sub_0)\n  dup1\n  dataOffset(sub_0)\n  0x00\n  codecopy\n  0x00\n  return\nstop\n\nsub_0: assembly {\n        /* \"contracts/core/system/flattened/BKSOpsRegister_flattened.sol\":1921:4470  contract BKSOpsRegister is IBKSOpsRegister, IBKSVersion {... */\n      mstore(0x40, 0x80)\n      callvalue\n      dup1\n      iszero\n      tag_1\n      jumpi\n      0x00\n      dup1\n      revert\n    tag_1:\n      pop\n      jumpi(tag_2, lt(calldatasize, 0x04))\n      shr(0xe0, calldataload(0x00))\n      dup1\n      0x5fd4b08a\n      gt\n      tag_13\n      jumpi\n      dup1\n      0x5fd4b08a\n      eq\n      tag_8\n      jumpi\n      dup1\n      0x8f283970\n      eq\n      tag_9\n      jumpi\n      dup1\n      0xa39fac12\n      eq\n      tag_10\n      jumpi\n      dup1\n      0xbf40fac1\n      eq\n      tag_11\n      jumpi\n      dup1\n      0xcd838f0f\n      eq\n      tag_12\n      jumpi\n      0x00\n      dup1\n      revert\n    tag_13:\n      dup1\n      0x09c16160\n      eq\n      tag_3\n      jumpi\n      dup1\n      0x0d8e6e2c\n      eq\n      tag_4\n      jumpi\n      dup1\n      0x12b164c8\n      eq\n      tag_5\n      jumpi\n      dup1\n      0x17d7de7c\n      eq\n      tag_6\n      jumpi\n      dup1\n      0x2f9ec7ba\n      eq\n      tag_7\n      jumpi\n    tag_2:\n      0x00\n      dup1\n      revert\n        /* \"contracts/core/system/flattened/BKSOpsRegister_flattened.sol\":3695:3898  function addAddress(string memory _name, address _address, bool _isSystemAddress) external adminOnly returns (bool _added) {... */\n    tag_3:\n      tag_14\n      tag_15\n      calldatasize\n      0x04\n      tag_16\n      jump\t// in\n    tag_15:\n      tag_17\n      jump\t// in\n    tag_14:\n      mload(0x40)\n        /* \"#utility.yul\":2064:2078   */\n      swap1\n      iszero\n        /* \"#utility.yul\":2057:2079   */\n      iszero\n        /* \"#utility.yul\":2039:2080   */\n      dup2\n      mstore\n        /* \"#utility.yul\":2027:2029   */\n      0x20\n        /* \"#utility.yul\":2012:2030   */\n      add\n        /* \"contracts/core/system/flattened/BKSOpsRegister_flattened.sol\":3695:3898  function addAddress(string memory _name, address _address, bool _isSystemAddress) external adminOnly returns (bool _added) {... */\n    tag_18:\n      mload(0x40)\n      dup1\n      swap2\n      sub\n      swap1\n      return\n        /* \"contracts/core/system/flattened/BKSOpsRegister_flattened.sol\":2530:2626  function getVersion() pure external returns (uint256 _version){... */\n    tag_4:\n      mload(0x40)\n        /* \"contracts/core/system/flattened/BKSOpsRegister_flattened.sol\":2168:2169  1 */\n      0x01\n        /* \"#utility.yul\":2237:2262   */\n      dup2\n      mstore\n        /* \"#utility.yul\":2225:2227   */\n      0x20\n        /* \"#utility.yul\":2210:2228   */\n      add\n        /* \"contracts/core/system/flattened/BKSOpsRegister_flattened.sol\":2530:2626  function getVersion() pure external returns (uint256 _version){... */\n      tag_18\n        /* \"#utility.yul\":2091:2268   */\n      jump\n        /* \"contracts/core/system/flattened/BKSOpsRegister_flattened.sol\":3470:3687  function addBKSVersionAddress(address _address, bool _isSystemAddress) external adminOnly returns (bool _added) {... */\n    tag_5:\n      tag_14\n      tag_25\n      calldatasize\n      0x04\n      tag_26\n      jump\t// in\n    tag_25:\n      tag_27\n      jump\t// in\n        /* \"contracts/core/system/flattened/BKSOpsRegister_flattened.sol\":2431:2524  function getName() pure external returns (string memory _name){... */\n    tag_6:\n        /* \"contracts/core/system/flattened/BKSOpsRegister_flattened.sol\":2511:2515  name */\n      0x40\n      dup1\n      mload\n      dup1\n      dup3\n      add\n      swap1\n      swap2\n      mstore\n      0x15\n      dup2\n      mstore\n      shl(0x58, 0x424b535f4f50535f52454749535445525f434f5245)\n      0x20\n      dup3\n      add\n      mstore\n        /* \"contracts/core/system/flattened/BKSOpsRegister_flattened.sol\":2431:2524  function getName() pure external returns (string memory _name){... */\n    tag_29:\n      mload(0x40)\n      tag_18\n      swap2\n      swap1\n      tag_32\n      jump\t// in\n        /* \"contracts/core/system/flattened/BKSOpsRegister_flattened.sol\":3326:3462  function isSystemAddress(address _address) view external returns (bool _isSystemAddress){... */\n    tag_7:\n      tag_14\n      tag_34\n      calldatasize\n      0x04\n      tag_35\n      jump\t// in\n    tag_34:\n      sub(shl(0xa0, 0x01), 0x01)\n        /* \"contracts/core/system/flattened/BKSOpsRegister_flattened.sol\":3432:3454  isSysAddress[_address] */\n      and\n        /* \"contracts/core/system/flattened/BKSOpsRegister_flattened.sol\":3392:3413  bool _isSystemAddress */\n      0x00\n        /* \"contracts/core/system/flattened/BKSOpsRegister_flattened.sol\":3432:3454  isSysAddress[_address] */\n      swap1\n      dup2\n      mstore\n        /* \"contracts/core/system/flattened/BKSOpsRegister_flattened.sol\":3432:3444  isSysAddress */\n      0x03\n        /* \"contracts/core/system/flattened/BKSOpsRegister_flattened.sol\":3432:3454  isSysAddress[_address] */\n      0x20\n      mstore\n      0x40\n      swap1\n      keccak256\n      sload\n      0xff\n      and\n      swap1\n        /* \"contracts/core/system/flattened/BKSOpsRegister_flattened.sol\":3326:3462  function isSystemAddress(address _address) view external returns (bool _isSystemAddress){... */\n      jump\n        /* \"contracts/core/system/flattened/BKSOpsRegister_flattened.sol\":3191:3318  function getName(address _address) view external returns (string memory _name){... */\n    tag_8:\n      tag_29\n      tag_39\n      calldatasize\n      0x04\n      tag_35\n      jump\t// in\n    tag_39:\n      tag_40\n      jump\t// in\n        /* \"contracts/core/system/flattened/BKSOpsRegister_flattened.sol\":3906:4048  function changeAdmin(address _newAdmin) external adminOnly returns (bool _changed){... */\n    tag_9:\n      tag_14\n      tag_43\n      calldatasize\n      0x04\n      tag_35\n      jump\t// in\n    tag_43:\n      tag_44\n      jump\t// in\n        /* \"contracts/core/system/flattened/BKSOpsRegister_flattened.sol\":2739:3048  function getAddresses() view external returns (string [] memory _name, address [] memory _address){... */\n    tag_10:\n      tag_46\n      tag_47\n      jump\t// in\n    tag_46:\n      mload(0x40)\n      tag_18\n      swap3\n      swap2\n      swap1\n      tag_49\n      jump\t// in\n        /* \"contracts/core/system/flattened/BKSOpsRegister_flattened.sol\":3056:3183  function getAddress(string memory _name) view external returns (address _address){... */\n    tag_11:\n      tag_50\n      tag_51\n      calldatasize\n      0x04\n      tag_52\n      jump\t// in\n    tag_51:\n      tag_53\n      jump\t// in\n    tag_50:\n      mload(0x40)\n      sub(shl(0xa0, 0x01), 0x01)\n        /* \"#utility.yul\":5427:5459   */\n      swap1\n      swap2\n      and\n        /* \"#utility.yul\":5409:5460   */\n      dup2\n      mstore\n        /* \"#utility.yul\":5397:5399   */\n      0x20\n        /* \"#utility.yul\":5382:5400   */\n      add\n        /* \"contracts/core/system/flattened/BKSOpsRegister_flattened.sol\":3056:3183  function getAddress(string memory _name) view external returns (address _address){... */\n      tag_18\n        /* \"#utility.yul\":5263:5466   */\n      jump\n        /* \"contracts/core/system/flattened/BKSOpsRegister_flattened.sol\":2632:2731  function getNames() view external returns (string [] memory _names){... */\n    tag_12:\n      tag_56\n      tag_57\n      jump\t// in\n    tag_56:\n      mload(0x40)\n      tag_18\n      swap2\n      swap1\n      tag_59\n      jump\t// in\n        /* \"contracts/core/system/flattened/BKSOpsRegister_flattened.sol\":3695:3898  function addAddress(string memory _name, address _address, bool _isSystemAddress) external adminOnly returns (bool _added) {... */\n    tag_17:\n        /* \"contracts/core/system/flattened/BKSOpsRegister_flattened.sol\":3805:3816  bool _added */\n      0x00\n        /* \"contracts/core/system/flattened/BKSOpsRegister_flattened.sol\":2040:2045  admin */\n      dup1\n      sload\n      sub(shl(0xa0, 0x01), 0x01)\n      and\n        /* \"contracts/core/system/flattened/BKSOpsRegister_flattened.sol\":2026:2036  msg.sender */\n      caller\n        /* \"contracts/core/system/flattened/BKSOpsRegister_flattened.sol\":2026:2045  msg.sender == admin */\n      eq\n        /* \"contracts/core/system/flattened/BKSOpsRegister_flattened.sol\":2018:2060  require(msg.sender == admin, \"admin only\") */\n      tag_61\n      jumpi\n      mload(0x40)\n      shl(0xe5, 0x461bcd)\n      dup2\n      mstore\n      0x04\n      add\n      tag_62\n      swap1\n      tag_63\n      jump\t// in\n    tag_62:\n      mload(0x40)\n      dup1\n      swap2\n      sub\n      swap1\n      revert\n    tag_61:\n        /* \"contracts/core/system/flattened/BKSOpsRegister_flattened.sol\":3836:3889  addAddressInternal(_name, _address, _isSystemAddress) */\n      tag_65\n        /* \"contracts/core/system/flattened/BKSOpsRegister_flattened.sol\":3855:3860  _name */\n      dup5\n        /* \"contracts/core/system/flattened/BKSOpsRegister_flattened.sol\":3862:3870  _address */\n      dup5\n        /* \"contracts/core/system/flattened/BKSOpsRegister_flattened.sol\":3872:3888  _isSystemAddress */\n      dup5\n        /* \"contracts/core/system/flattened/BKSOpsRegister_flattened.sol\":3836:3854  addAddressInternal */\n      tag_66\n        /* \"contracts/core/system/flattened/BKSOpsRegister_flattened.sol\":3836:3889  addAddressInternal(_name, _address, _isSystemAddress) */\n      jump\t// in\n    tag_65:\n        /* \"contracts/core/system/flattened/BKSOpsRegister_flattened.sol\":3829:3889  return addAddressInternal(_name, _address, _isSystemAddress) */\n      swap5\n        /* \"contracts/core/system/flattened/BKSOpsRegister_flattened.sol\":3695:3898  function addAddress(string memory _name, address _address, bool _isSystemAddress) external adminOnly returns (bool _added) {... */\n      swap4\n      pop\n      pop\n      pop\n      pop\n      jump\t// out\n        /* \"contracts/core/system/flattened/BKSOpsRegister_flattened.sol\":3470:3687  function addBKSVersionAddress(address _address, bool _isSystemAddress) external adminOnly returns (bool _added) {... */\n    tag_27:\n        /* \"contracts/core/system/flattened/BKSOpsRegister_flattened.sol\":3569:3580  bool _added */\n      0x00\n        /* \"contracts/core/system/flattened/BKSOpsRegister_flattened.sol\":2040:2045  admin */\n      dup1\n      sload\n      sub(shl(0xa0, 0x01), 0x01)\n      and\n        /* \"contracts/core/system/flattened/BKSOpsRegister_flattened.sol\":2026:2036  msg.sender */\n      caller\n        /* \"contracts/core/system/flattened/BKSOpsRegister_flattened.sol\":2026:2045  msg.sender == admin */\n      eq\n        /* \"contracts/core/system/flattened/BKSOpsRegister_flattened.sol\":2018:2060  require(msg.sender == admin, \"admin only\") */\n      tag_69\n      jumpi\n      mload(0x40)\n      shl(0xe5, 0x461bcd)\n      dup2\n      mstore\n      0x04\n      add\n      tag_62\n      swap1\n      tag_63\n      jump\t// in\n    tag_69:\n        /* \"contracts/core/system/flattened/BKSOpsRegister_flattened.sol\":3600:3679  addAddressInternal(IBKSVersion(_address).getName(), _address, _isSystemAddress) */\n      tag_72\n        /* \"contracts/core/system/flattened/BKSOpsRegister_flattened.sol\":3631:3639  _address */\n      dup4\n      sub(shl(0xa0, 0x01), 0x01)\n        /* \"contracts/core/system/flattened/BKSOpsRegister_flattened.sol\":3619:3648  IBKSVersion(_address).getName */\n      and\n      0x17d7de7c\n        /* \"contracts/core/system/flattened/BKSOpsRegister_flattened.sol\":3619:3650  IBKSVersion(_address).getName() */\n      mload(0x40)\n      dup2\n      0xffffffff\n      and\n      0xe0\n      shl\n      dup2\n      mstore\n      0x04\n      add\n      0x00\n      mload(0x40)\n      dup1\n      dup4\n      sub\n      dup2\n      dup7\n      gas\n      staticcall\n      iszero\n      dup1\n      iszero\n      tag_74\n      jumpi\n      returndatasize\n      0x00\n      dup1\n      returndatacopy\n      revert(0x00, returndatasize)\n    tag_74:\n      pop\n      pop\n      pop\n      pop\n      mload(0x40)\n      returndatasize\n      0x00\n      dup3\n      returndatacopy\n      0x1f\n      returndatasize\n      swap1\n      dup2\n      add\n      not(0x1f)\n      and\n      dup3\n      add\n      0x40\n      mstore\n      tag_75\n      swap2\n      swap1\n      dup2\n      add\n      swap1\n      tag_76\n      jump\t// in\n    tag_75:\n        /* \"contracts/core/system/flattened/BKSOpsRegister_flattened.sol\":3652:3660  _address */\n      dup5\n        /* \"contracts/core/system/flattened/BKSOpsRegister_flattened.sol\":3662:3678  _isSystemAddress */\n      dup5\n        /* \"contracts/core/system/flattened/BKSOpsRegister_flattened.sol\":3600:3618  addAddressInternal */\n      tag_66\n        /* \"contracts/core/system/flattened/BKSOpsRegister_flattened.sol\":3600:3679  addAddressInternal(IBKSVersion(_address).getName(), _address, _isSystemAddress) */\n      jump\t// in\n    tag_72:\n        /* \"contracts/core/system/flattened/BKSOpsRegister_flattened.sol\":3593:3679  return addAddressInternal(IBKSVersion(_address).getName(), _address, _isSystemAddress) */\n      swap4\n        /* \"contracts/core/system/flattened/BKSOpsRegister_flattened.sol\":3470:3687  function addBKSVersionAddress(address _address, bool _isSystemAddress) external adminOnly returns (bool _added) {... */\n      swap3\n      pop\n      pop\n      pop\n      jump\t// out\n        /* \"contracts/core/system/flattened/BKSOpsRegister_flattened.sol\":3191:3318  function getName(address _address) view external returns (string memory _name){... */\n    tag_40:\n      sub(shl(0xa0, 0x01), 0x01)\n        /* \"contracts/core/system/flattened/BKSOpsRegister_flattened.sol\":3287:3310  nameByAddress[_address] */\n      dup2\n      and\n      0x00\n      swap1\n      dup2\n      mstore\n        /* \"contracts/core/system/flattened/BKSOpsRegister_flattened.sol\":3287:3300  nameByAddress */\n      0x04\n        /* \"contracts/core/system/flattened/BKSOpsRegister_flattened.sol\":3287:3310  nameByAddress[_address] */\n      0x20\n      mstore\n      0x40\n      swap1\n      keccak256\n        /* \"contracts/core/system/flattened/BKSOpsRegister_flattened.sol\":3280:3310  return nameByAddress[_address] */\n      dup1\n      sload\n        /* \"contracts/core/system/flattened/BKSOpsRegister_flattened.sol\":3249:3268  string memory _name */\n      0x60\n      swap2\n        /* \"contracts/core/system/flattened/BKSOpsRegister_flattened.sol\":3287:3310  nameByAddress[_address] */\n      swap1\n        /* \"contracts/core/system/flattened/BKSOpsRegister_flattened.sol\":3280:3310  return nameByAddress[_address] */\n      tag_80\n      swap1\n      tag_81\n      jump\t// in\n    tag_80:\n      dup1\n      0x1f\n      add\n      0x20\n      dup1\n      swap2\n      div\n      mul\n      0x20\n      add\n      mload(0x40)\n      swap1\n      dup2\n      add\n      0x40\n      mstore\n      dup1\n      swap3\n      swap2\n      swap1\n      dup2\n      dup2\n      mstore\n      0x20\n      add\n      dup3\n      dup1\n      sload\n      tag_82\n      swap1\n      tag_81\n      jump\t// in\n    tag_82:\n      dup1\n      iszero\n      tag_83\n      jumpi\n      dup1\n      0x1f\n      lt\n      tag_84\n      jumpi\n      0x0100\n      dup1\n      dup4\n      sload\n      div\n      mul\n      dup4\n      mstore\n      swap2\n      0x20\n      add\n      swap2\n      jump(tag_83)\n    tag_84:\n      dup3\n      add\n      swap2\n      swap1\n      0x00\n      mstore\n      keccak256(0x00, 0x20)\n      swap1\n    tag_85:\n      dup2\n      sload\n      dup2\n      mstore\n      swap1\n      0x01\n      add\n      swap1\n      0x20\n      add\n      dup1\n      dup4\n      gt\n      tag_85\n      jumpi\n      dup3\n      swap1\n      sub\n      0x1f\n      and\n      dup3\n      add\n      swap2\n    tag_83:\n      pop\n      pop\n      pop\n      pop\n      pop\n      swap1\n      pop\n        /* \"contracts/core/system/flattened/BKSOpsRegister_flattened.sol\":3191:3318  function getName(address _address) view external returns (string memory _name){... */\n      swap2\n      swap1\n      pop\n      jump\t// out\n        /* \"contracts/core/system/flattened/BKSOpsRegister_flattened.sol\":3906:4048  function changeAdmin(address _newAdmin) external adminOnly returns (bool _changed){... */\n    tag_44:\n        /* \"contracts/core/system/flattened/BKSOpsRegister_flattened.sol\":3974:3987  bool _changed */\n      0x00\n        /* \"contracts/core/system/flattened/BKSOpsRegister_flattened.sol\":2040:2045  admin */\n      dup1\n      sload\n      sub(shl(0xa0, 0x01), 0x01)\n      and\n        /* \"contracts/core/system/flattened/BKSOpsRegister_flattened.sol\":2026:2036  msg.sender */\n      caller\n        /* \"contracts/core/system/flattened/BKSOpsRegister_flattened.sol\":2026:2045  msg.sender == admin */\n      eq\n        /* \"contracts/core/system/flattened/BKSOpsRegister_flattened.sol\":2018:2060  require(msg.sender == admin, \"admin only\") */\n      tag_87\n      jumpi\n      mload(0x40)\n      shl(0xe5, 0x461bcd)\n      dup2\n      mstore\n      0x04\n      add\n      tag_62\n      swap1\n      tag_63\n      jump\t// in\n    tag_87:\n      pop\n        /* \"contracts/core/system/flattened/BKSOpsRegister_flattened.sol\":3999:4004  admin */\n      0x00\n        /* \"contracts/core/system/flattened/BKSOpsRegister_flattened.sol\":3999:4016  admin = _newAdmin */\n      dup1\n      sload\n      not(sub(shl(0xa0, 0x01), 0x01))\n      and\n      sub(shl(0xa0, 0x01), 0x01)\n      dup4\n      and\n      or\n      swap1\n      sstore\n      0x01\n        /* \"contracts/core/system/flattened/BKSOpsRegister_flattened.sol\":2071:2072  _ */\n    tag_89:\n        /* \"contracts/core/system/flattened/BKSOpsRegister_flattened.sol\":3906:4048  function changeAdmin(address _newAdmin) external adminOnly returns (bool _changed){... */\n      swap2\n      swap1\n      pop\n      jump\t// out\n        /* \"contracts/core/system/flattened/BKSOpsRegister_flattened.sol\":2739:3048  function getAddresses() view external returns (string [] memory _name, address [] memory _address){... */\n    tag_47:\n        /* \"contracts/core/system/flattened/BKSOpsRegister_flattened.sol\":2873:2878  names */\n      0x01\n        /* \"contracts/core/system/flattened/BKSOpsRegister_flattened.sol\":2873:2885  names.length */\n      sload\n        /* \"contracts/core/system/flattened/BKSOpsRegister_flattened.sol\":2786:2808  string [] memory _name */\n      0x60\n      swap1\n      dup2\n      swap1\n        /* \"contracts/core/system/flattened/BKSOpsRegister_flattened.sol\":2859:2886  new address[](names.length) */\n      0xffffffffffffffff\n      dup2\n      gt\n      iszero\n      tag_92\n      jumpi\n      tag_92\n      tag_93\n      jump\t// in\n    tag_92:\n      mload(0x40)\n      swap1\n      dup1\n      dup3\n      mstore\n      dup1\n      0x20\n      mul\n      0x20\n      add\n      dup3\n      add\n      0x40\n      mstore\n      dup1\n      iszero\n      tag_94\n      jumpi\n      dup2\n      0x20\n      add\n      0x20\n      dup3\n      mul\n      dup1\n      calldatasize\n      dup4\n      calldatacopy\n      add\n      swap1\n      pop\n    tag_94:\n      pop\n        /* \"contracts/core/system/flattened/BKSOpsRegister_flattened.sol\":2848:2886  _address = new address[](names.length) */\n      swap1\n      pop\n        /* \"contracts/core/system/flattened/BKSOpsRegister_flattened.sol\":2901:2910  uint256 x */\n      0x00\n        /* \"contracts/core/system/flattened/BKSOpsRegister_flattened.sol\":2897:3003  for(uint256 x = 0; x < names.length; x++) {... */\n    tag_95:\n        /* \"contracts/core/system/flattened/BKSOpsRegister_flattened.sol\":2920:2925  names */\n      0x01\n        /* \"contracts/core/system/flattened/BKSOpsRegister_flattened.sol\":2920:2932  names.length */\n      sload\n        /* \"contracts/core/system/flattened/BKSOpsRegister_flattened.sol\":2916:2932  x < names.length */\n      dup2\n      lt\n        /* \"contracts/core/system/flattened/BKSOpsRegister_flattened.sol\":2897:3003  for(uint256 x = 0; x < names.length; x++) {... */\n      iszero\n      tag_96\n      jumpi\n        /* \"contracts/core/system/flattened/BKSOpsRegister_flattened.sol\":2968:2981  addressByName */\n      0x02\n        /* \"contracts/core/system/flattened/BKSOpsRegister_flattened.sol\":2982:2987  names */\n      0x01\n        /* \"contracts/core/system/flattened/BKSOpsRegister_flattened.sol\":2988:2989  x */\n      dup3\n        /* \"contracts/core/system/flattened/BKSOpsRegister_flattened.sol\":2982:2990  names[x] */\n      dup2\n      sload\n      dup2\n      lt\n      tag_99\n      jumpi\n      tag_99\n      tag_100\n      jump\t// in\n    tag_99:\n      swap1\n      0x00\n      mstore\n      keccak256(0x00, 0x20)\n      add\n        /* \"contracts/core/system/flattened/BKSOpsRegister_flattened.sol\":2968:2991  addressByName[names[x]] */\n      mload(0x40)\n      tag_102\n      swap2\n      swap1\n      tag_103\n      jump\t// in\n    tag_102:\n      swap1\n      dup2\n      mstore\n      mload(0x40)\n      swap1\n      dup2\n      swap1\n      sub\n      0x20\n      add\n      swap1\n      keccak256\n      sload\n        /* \"contracts/core/system/flattened/BKSOpsRegister_flattened.sol\":2954:2965  _address[x] */\n      dup3\n      mload\n      sub(shl(0xa0, 0x01), 0x01)\n        /* \"contracts/core/system/flattened/BKSOpsRegister_flattened.sol\":2968:2991  addressByName[names[x]] */\n      swap1\n      swap2\n      and\n      swap1\n        /* \"contracts/core/system/flattened/BKSOpsRegister_flattened.sol\":2954:2962  _address */\n      dup4\n      swap1\n        /* \"contracts/core/system/flattened/BKSOpsRegister_flattened.sol\":2963:2964  x */\n      dup4\n      swap1\n        /* \"contracts/core/system/flattened/BKSOpsRegister_flattened.sol\":2954:2965  _address[x] */\n      dup2\n      lt\n      tag_105\n      jumpi\n      tag_105\n      tag_100\n      jump\t// in\n    tag_105:\n      sub(shl(0xa0, 0x01), 0x01)\n        /* \"contracts/core/system/flattened/BKSOpsRegister_flattened.sol\":2954:2991  _address[x] = addressByName[names[x]] */\n      swap1\n      swap3\n      and\n        /* \"contracts/core/system/flattened/BKSOpsRegister_flattened.sol\":2954:2965  _address[x] */\n      0x20\n      swap3\n      dup4\n      mul\n      swap2\n      swap1\n      swap2\n      add\n      swap1\n      swap2\n      add\n        /* \"contracts/core/system/flattened/BKSOpsRegister_flattened.sol\":2954:2991  _address[x] = addressByName[names[x]] */\n      mstore\n        /* \"contracts/core/system/flattened/BKSOpsRegister_flattened.sol\":2934:2937  x++ */\n      0x01\n      add\n        /* \"contracts/core/system/flattened/BKSOpsRegister_flattened.sol\":2897:3003  for(uint256 x = 0; x < names.length; x++) {... */\n      jump(tag_95)\n    tag_96:\n      pop\n        /* \"contracts/core/system/flattened/BKSOpsRegister_flattened.sol\":3024:3029  names */\n      0x01\n        /* \"contracts/core/system/flattened/BKSOpsRegister_flattened.sol\":3031:3039  _address */\n      dup2\n        /* \"contracts/core/system/flattened/BKSOpsRegister_flattened.sol\":3016:3040  return (names, _address) */\n      dup2\n      dup1\n      sload\n      dup1\n      0x20\n      mul\n      0x20\n      add\n      mload(0x40)\n      swap1\n      dup2\n      add\n      0x40\n      mstore\n      dup1\n      swap3\n      swap2\n      swap1\n      dup2\n      dup2\n      mstore\n      0x20\n      add\n      0x00\n      swap1\n    tag_106:\n      dup3\n      dup3\n      lt\n      iszero\n      tag_107\n      jumpi\n      dup4\n      dup3\n      swap1\n      0x00\n      mstore\n      keccak256(0x00, 0x20)\n      add\n      dup1\n      sload\n      tag_109\n      swap1\n      tag_81\n      jump\t// in\n    tag_109:\n      dup1\n      0x1f\n      add\n      0x20\n      dup1\n      swap2\n      div\n      mul\n      0x20\n      add\n      mload(0x40)\n      swap1\n      dup2\n      add\n      0x40\n      mstore\n      dup1\n      swap3\n      swap2\n      swap1\n      dup2\n      dup2\n      mstore\n      0x20\n      add\n      dup3\n      dup1\n      sload\n      tag_110\n      swap1\n      tag_81\n      jump\t// in\n    tag_110:\n      dup1\n      iszero\n      tag_111\n      jumpi\n      dup1\n      0x1f\n      lt\n      tag_112\n      jumpi\n      0x0100\n      dup1\n      dup4\n      sload\n      div\n      mul\n      dup4\n      mstore\n      swap2\n      0x20\n      add\n      swap2\n      jump(tag_111)\n    tag_112:\n      dup3\n      add\n      swap2\n      swap1\n      0x00\n      mstore\n      keccak256(0x00, 0x20)\n      swap1\n    tag_113:\n      dup2\n      sload\n      dup2\n      mstore\n      swap1\n      0x01\n      add\n      swap1\n      0x20\n      add\n      dup1\n      dup4\n      gt\n      tag_113\n      jumpi\n      dup3\n      swap1\n      sub\n      0x1f\n      and\n      dup3\n      add\n      swap2\n    tag_111:\n      pop\n      pop\n      pop\n      pop\n      pop\n      dup2\n      mstore\n      0x20\n      add\n      swap1\n      0x01\n      add\n      swap1\n      jump(tag_106)\n    tag_107:\n      pop\n      pop\n      pop\n      pop\n      swap2\n      pop\n      swap2\n      pop\n      swap2\n      pop\n        /* \"contracts/core/system/flattened/BKSOpsRegister_flattened.sol\":2739:3048  function getAddresses() view external returns (string [] memory _name, address [] memory _address){... */\n      swap1\n      swap2\n      jump\t// out\n        /* \"contracts/core/system/flattened/BKSOpsRegister_flattened.sol\":3056:3183  function getAddress(string memory _name) view external returns (address _address){... */\n    tag_53:\n        /* \"contracts/core/system/flattened/BKSOpsRegister_flattened.sol\":3120:3136  address _address */\n      0x00\n        /* \"contracts/core/system/flattened/BKSOpsRegister_flattened.sol\":3155:3168  addressByName */\n      0x02\n        /* \"contracts/core/system/flattened/BKSOpsRegister_flattened.sol\":3169:3174  _name */\n      dup3\n        /* \"contracts/core/system/flattened/BKSOpsRegister_flattened.sol\":3155:3175  addressByName[_name] */\n      mload(0x40)\n      tag_115\n      swap2\n      swap1\n      tag_116\n      jump\t// in\n    tag_115:\n      swap1\n      dup2\n      mstore\n      mload(0x40)\n      swap1\n      dup2\n      swap1\n      sub\n      0x20\n      add\n      swap1\n      keccak256\n      sload\n      sub(shl(0xa0, 0x01), 0x01)\n      and\n      swap3\n        /* \"contracts/core/system/flattened/BKSOpsRegister_flattened.sol\":3056:3183  function getAddress(string memory _name) view external returns (address _address){... */\n      swap2\n      pop\n      pop\n      jump\t// out\n        /* \"contracts/core/system/flattened/BKSOpsRegister_flattened.sol\":2632:2731  function getNames() view external returns (string [] memory _names){... */\n    tag_57:\n        /* \"contracts/core/system/flattened/BKSOpsRegister_flattened.sol\":2675:2698  string [] memory _names */\n      0x60\n        /* \"contracts/core/system/flattened/BKSOpsRegister_flattened.sol\":2717:2722  names */\n      0x01\n        /* \"contracts/core/system/flattened/BKSOpsRegister_flattened.sol\":2710:2722  return names */\n      dup1\n      sload\n      dup1\n      0x20\n      mul\n      0x20\n      add\n      mload(0x40)\n      swap1\n      dup2\n      add\n      0x40\n      mstore\n      dup1\n      swap3\n      swap2\n      swap1\n      dup2\n      dup2\n      mstore\n      0x20\n      add\n      0x00\n      swap1\n    tag_118:\n      dup3\n      dup3\n      lt\n      iszero\n      tag_119\n      jumpi\n      dup4\n      dup3\n      swap1\n      0x00\n      mstore\n      keccak256(0x00, 0x20)\n      add\n      dup1\n      sload\n      tag_121\n      swap1\n      tag_81\n      jump\t// in\n    tag_121:\n      dup1\n      0x1f\n      add\n      0x20\n      dup1\n      swap2\n      div\n      mul\n      0x20\n      add\n      mload(0x40)\n      swap1\n      dup2\n      add\n      0x40\n      mstore\n      dup1\n      swap3\n      swap2\n      swap1\n      dup2\n      dup2\n      mstore\n      0x20\n      add\n      dup3\n      dup1\n      sload\n      tag_122\n      swap1\n      tag_81\n      jump\t// in\n    tag_122:\n      dup1\n      iszero\n      tag_123\n      jumpi\n      dup1\n      0x1f\n      lt\n      tag_124\n      jumpi\n      0x0100\n      dup1\n      dup4\n      sload\n      div\n      mul\n      dup4\n      mstore\n      swap2\n      0x20\n      add\n      swap2\n      jump(tag_123)\n    tag_124:\n      dup3\n      add\n      swap2\n      swap1\n      0x00\n      mstore\n      keccak256(0x00, 0x20)\n      swap1\n    tag_125:\n      dup2\n      sload\n      dup2\n      mstore\n      swap1\n      0x01\n      add\n      swap1\n      0x20\n      add\n      dup1\n      dup4\n      gt\n      tag_125\n      jumpi\n      dup3\n      swap1\n      sub\n      0x1f\n      and\n      dup3\n      add\n      swap2\n    tag_123:\n      pop\n      pop\n      pop\n      pop\n      pop\n      dup2\n      mstore\n      0x20\n      add\n      swap1\n      0x01\n      add\n      swap1\n      jump(tag_118)\n    tag_119:\n      pop\n      pop\n      pop\n      pop\n      swap1\n      pop\n        /* \"contracts/core/system/flattened/BKSOpsRegister_flattened.sol\":2632:2731  function getNames() view external returns (string [] memory _names){... */\n      swap1\n      jump\t// out\n        /* \"contracts/core/system/flattened/BKSOpsRegister_flattened.sol\":4147:4465  function addAddressInternal(string memory _name, address _address, bool _isSystemAddress) internal returns (bool _added) {... */\n    tag_66:\n        /* \"contracts/core/system/flattened/BKSOpsRegister_flattened.sol\":4279:4284  names */\n      0x01\n        /* \"contracts/core/system/flattened/BKSOpsRegister_flattened.sol\":4279:4296  names.push(_name) */\n      dup1\n      sload\n      dup1\n      dup3\n      add\n      dup3\n      sstore\n        /* \"contracts/core/system/flattened/BKSOpsRegister_flattened.sol\":4255:4266  bool _added */\n      0x00\n        /* \"contracts/core/system/flattened/BKSOpsRegister_flattened.sol\":4279:4296  names.push(_name) */\n      swap2\n      dup3\n      mstore\n      0xb10e2d527612073b26eecdfd717e6a320cf44b4afac2b0732d9fcbe2b7fa0cf6\n      add\n      tag_128\n        /* \"contracts/core/system/flattened/BKSOpsRegister_flattened.sol\":4290:4295  _name */\n      dup6\n        /* \"contracts/core/system/flattened/BKSOpsRegister_flattened.sol\":4279:4296  names.push(_name) */\n      dup3\n      tag_129\n      jump\t// in\n    tag_128:\n      pop\n      sub(shl(0xa0, 0x01), 0x01)\n        /* \"contracts/core/system/flattened/BKSOpsRegister_flattened.sol\":4307:4330  nameByAddress[_address] */\n      dup4\n      and\n      0x00\n      swap1\n      dup2\n      mstore\n        /* \"contracts/core/system/flattened/BKSOpsRegister_flattened.sol\":4307:4320  nameByAddress */\n      0x04\n        /* \"contracts/core/system/flattened/BKSOpsRegister_flattened.sol\":4307:4330  nameByAddress[_address] */\n      0x20\n      mstore\n      0x40\n      swap1\n      keccak256\n        /* \"contracts/core/system/flattened/BKSOpsRegister_flattened.sol\":4307:4338  nameByAddress[_address] = _name */\n      tag_130\n        /* \"contracts/core/system/flattened/BKSOpsRegister_flattened.sol\":4333:4338  _name */\n      dup6\n        /* \"contracts/core/system/flattened/BKSOpsRegister_flattened.sol\":4307:4330  nameByAddress[_address] */\n      dup3\n        /* \"contracts/core/system/flattened/BKSOpsRegister_flattened.sol\":4307:4338  nameByAddress[_address] = _name */\n      tag_129\n      jump\t// in\n    tag_130:\n      pop\n        /* \"contracts/core/system/flattened/BKSOpsRegister_flattened.sol\":4373:4381  _address */\n      dup3\n        /* \"contracts/core/system/flattened/BKSOpsRegister_flattened.sol\":4350:4363  addressByName */\n      0x02\n        /* \"contracts/core/system/flattened/BKSOpsRegister_flattened.sol\":4364:4369  _name */\n      dup6\n        /* \"contracts/core/system/flattened/BKSOpsRegister_flattened.sol\":4350:4370  addressByName[_name] */\n      mload(0x40)\n      tag_131\n      swap2\n      swap1\n      tag_116\n      jump\t// in\n    tag_131:\n      swap1\n      dup2\n      mstore\n      0x40\n      dup1\n      mload\n      0x20\n      swap3\n      dup2\n      swap1\n      sub\n      dup4\n      add\n      swap1\n      keccak256\n        /* \"contracts/core/system/flattened/BKSOpsRegister_flattened.sol\":4350:4381  addressByName[_name] = _address */\n      dup1\n      sload\n      not(sub(shl(0xa0, 0x01), 0x01))\n      and\n      sub(shl(0xa0, 0x01), 0x01)\n      swap5\n      dup6\n      and\n      or\n      swap1\n      sstore\n        /* \"contracts/core/system/flattened/BKSOpsRegister_flattened.sol\":4393:4415  isSysAddress[_address] */\n      swap5\n      swap1\n      swap2\n      and\n      0x00\n      swap1\n      dup2\n      mstore\n        /* \"contracts/core/system/flattened/BKSOpsRegister_flattened.sol\":4393:4405  isSysAddress */\n      0x03\n        /* \"contracts/core/system/flattened/BKSOpsRegister_flattened.sol\":4393:4415  isSysAddress[_address] */\n      swap1\n      swap2\n      mstore\n      swap3\n      swap1\n      swap3\n      keccak256\n        /* \"contracts/core/system/flattened/BKSOpsRegister_flattened.sol\":4393:4434  isSysAddress[_address] = _isSystemAddress */\n      dup1\n      sload\n      not(0xff)\n      and\n      swap2\n      iszero\n      iszero\n      swap2\n      swap1\n      swap2\n      or\n      swap1\n      sstore\n      pop\n      0x01\n      swap2\n        /* \"contracts/core/system/flattened/BKSOpsRegister_flattened.sol\":4147:4465  function addAddressInternal(string memory _name, address _address, bool _isSystemAddress) internal returns (bool _added) {... */\n      swap1\n      pop\n      jump\t// out\n        /* \"#utility.yul\":14:141   */\n    tag_93:\n        /* \"#utility.yul\":75:85   */\n      0x4e487b71\n        /* \"#utility.yul\":70:73   */\n      0xe0\n        /* \"#utility.yul\":66:86   */\n      shl\n        /* \"#utility.yul\":63:64   */\n      0x00\n        /* \"#utility.yul\":56:87   */\n      mstore\n        /* \"#utility.yul\":106:110   */\n      0x41\n        /* \"#utility.yul\":103:104   */\n      0x04\n        /* \"#utility.yul\":96:111   */\n      mstore\n        /* \"#utility.yul\":130:134   */\n      0x24\n        /* \"#utility.yul\":127:128   */\n      0x00\n        /* \"#utility.yul\":120:135   */\n      revert\n        /* \"#utility.yul\":146:421   */\n    tag_132:\n        /* \"#utility.yul\":217:219   */\n      0x40\n        /* \"#utility.yul\":211:220   */\n      mload\n        /* \"#utility.yul\":282:284   */\n      0x1f\n        /* \"#utility.yul\":263:276   */\n      dup3\n      add\n      not(0x1f)\n        /* \"#utility.yul\":259:286   */\n      and\n        /* \"#utility.yul\":247:287   */\n      dup2\n      add\n        /* \"#utility.yul\":317:335   */\n      0xffffffffffffffff\n        /* \"#utility.yul\":302:336   */\n      dup2\n      gt\n        /* \"#utility.yul\":338:360   */\n      dup3\n      dup3\n      lt\n        /* \"#utility.yul\":299:361   */\n      or\n        /* \"#utility.yul\":296:384   */\n      iszero\n      tag_147\n      jumpi\n        /* \"#utility.yul\":364:382   */\n      tag_147\n      tag_93\n      jump\t// in\n    tag_147:\n        /* \"#utility.yul\":400:402   */\n      0x40\n        /* \"#utility.yul\":393:415   */\n      mstore\n        /* \"#utility.yul\":146:421   */\n      swap2\n      swap1\n      pop\n      jump\t// out\n        /* \"#utility.yul\":426:613   */\n    tag_133:\n        /* \"#utility.yul\":475:479   */\n      0x00\n        /* \"#utility.yul\":508:526   */\n      0xffffffffffffffff\n        /* \"#utility.yul\":500:506   */\n      dup3\n        /* \"#utility.yul\":497:527   */\n      gt\n        /* \"#utility.yul\":494:550   */\n      iszero\n      tag_150\n      jumpi\n        /* \"#utility.yul\":530:548   */\n      tag_150\n      tag_93\n      jump\t// in\n    tag_150:\n      pop\n        /* \"#utility.yul\":596:598   */\n      0x1f\n        /* \"#utility.yul\":575:590   */\n      add\n      not(0x1f)\n        /* \"#utility.yul\":571:600   */\n      and\n        /* \"#utility.yul\":602:606   */\n      0x20\n        /* \"#utility.yul\":567:607   */\n      add\n      swap1\n        /* \"#utility.yul\":426:613   */\n      jump\t// out\n        /* \"#utility.yul\":618:1082   */\n    tag_134:\n        /* \"#utility.yul\":661:666   */\n      0x00\n        /* \"#utility.yul\":714:717   */\n      dup3\n        /* \"#utility.yul\":707:711   */\n      0x1f\n        /* \"#utility.yul\":699:705   */\n      dup4\n        /* \"#utility.yul\":695:712   */\n      add\n        /* \"#utility.yul\":691:718   */\n      slt\n        /* \"#utility.yul\":681:736   */\n      tag_152\n      jumpi\n        /* \"#utility.yul\":732:733   */\n      0x00\n        /* \"#utility.yul\":729:730   */\n      dup1\n        /* \"#utility.yul\":722:734   */\n      revert\n        /* \"#utility.yul\":681:736   */\n    tag_152:\n        /* \"#utility.yul\":768:774   */\n      dup2\n        /* \"#utility.yul\":755:775   */\n      calldataload\n        /* \"#utility.yul\":799:848   */\n      tag_153\n        /* \"#utility.yul\":815:847   */\n      tag_154\n        /* \"#utility.yul\":844:846   */\n      dup3\n        /* \"#utility.yul\":815:847   */\n      tag_133\n      jump\t// in\n    tag_154:\n        /* \"#utility.yul\":799:848   */\n      tag_132\n      jump\t// in\n    tag_153:\n        /* \"#utility.yul\":873:875   */\n      dup2\n        /* \"#utility.yul\":864:871   */\n      dup2\n        /* \"#utility.yul\":857:876   */\n      mstore\n        /* \"#utility.yul\":919:922   */\n      dup5\n        /* \"#utility.yul\":912:916   */\n      0x20\n        /* \"#utility.yul\":907:909   */\n      dup4\n        /* \"#utility.yul\":899:905   */\n      dup7\n        /* \"#utility.yul\":895:910   */\n      add\n        /* \"#utility.yul\":891:917   */\n      add\n        /* \"#utility.yul\":888:923   */\n      gt\n        /* \"#utility.yul\":885:940   */\n      iszero\n      tag_155\n      jumpi\n        /* \"#utility.yul\":936:937   */\n      0x00\n        /* \"#utility.yul\":933:934   */\n      dup1\n        /* \"#utility.yul\":926:938   */\n      revert\n        /* \"#utility.yul\":885:940   */\n    tag_155:\n        /* \"#utility.yul\":1001:1003   */\n      dup2\n        /* \"#utility.yul\":994:998   */\n      0x20\n        /* \"#utility.yul\":986:992   */\n      dup6\n        /* \"#utility.yul\":982:999   */\n      add\n        /* \"#utility.yul\":975:979   */\n      0x20\n        /* \"#utility.yul\":966:973   */\n      dup4\n        /* \"#utility.yul\":962:980   */\n      add\n        /* \"#utility.yul\":949:1004   */\n      calldatacopy\n        /* \"#utility.yul\":1049:1050   */\n      0x00\n        /* \"#utility.yul\":1024:1040   */\n      swap2\n      dup2\n      add\n        /* \"#utility.yul\":1042:1046   */\n      0x20\n        /* \"#utility.yul\":1020:1047   */\n      add\n        /* \"#utility.yul\":1013:1051   */\n      swap2\n      swap1\n      swap2\n      mstore\n        /* \"#utility.yul\":1028:1035   */\n      swap4\n        /* \"#utility.yul\":618:1082   */\n      swap3\n      pop\n      pop\n      pop\n      jump\t// out\n        /* \"#utility.yul\":1087:1260   */\n    tag_135:\n        /* \"#utility.yul\":1155:1175   */\n      dup1\n      calldataload\n      sub(shl(0xa0, 0x01), 0x01)\n        /* \"#utility.yul\":1204:1235   */\n      dup2\n      and\n        /* \"#utility.yul\":1194:1236   */\n      dup2\n      eq\n        /* \"#utility.yul\":1184:1254   */\n      tag_89\n      jumpi\n        /* \"#utility.yul\":1250:1251   */\n      0x00\n        /* \"#utility.yul\":1247:1248   */\n      dup1\n        /* \"#utility.yul\":1240:1252   */\n      revert\n        /* \"#utility.yul\":1265:1425   */\n    tag_136:\n        /* \"#utility.yul\":1330:1350   */\n      dup1\n      calldataload\n        /* \"#utility.yul\":1386:1399   */\n      dup1\n      iszero\n        /* \"#utility.yul\":1379:1400   */\n      iszero\n        /* \"#utility.yul\":1369:1401   */\n      dup2\n      eq\n        /* \"#utility.yul\":1359:1419   */\n      tag_89\n      jumpi\n        /* \"#utility.yul\":1415:1416   */\n      0x00\n        /* \"#utility.yul\":1412:1413   */\n      dup1\n        /* \"#utility.yul\":1405:1417   */\n      revert\n        /* \"#utility.yul\":1430:1894   */\n    tag_16:\n        /* \"#utility.yul\":1514:1520   */\n      0x00\n        /* \"#utility.yul\":1522:1528   */\n      dup1\n        /* \"#utility.yul\":1530:1536   */\n      0x00\n        /* \"#utility.yul\":1583:1585   */\n      0x60\n        /* \"#utility.yul\":1571:1580   */\n      dup5\n        /* \"#utility.yul\":1562:1569   */\n      dup7\n        /* \"#utility.yul\":1558:1581   */\n      sub\n        /* \"#utility.yul\":1554:1586   */\n      slt\n        /* \"#utility.yul\":1551:1603   */\n      iszero\n      tag_161\n      jumpi\n        /* \"#utility.yul\":1599:1600   */\n      0x00\n        /* \"#utility.yul\":1596:1597   */\n      dup1\n        /* \"#utility.yul\":1589:1601   */\n      revert\n        /* \"#utility.yul\":1551:1603   */\n    tag_161:\n        /* \"#utility.yul\":1639:1648   */\n      dup4\n        /* \"#utility.yul\":1626:1649   */\n      calldataload\n        /* \"#utility.yul\":1672:1690   */\n      0xffffffffffffffff\n        /* \"#utility.yul\":1664:1670   */\n      dup2\n        /* \"#utility.yul\":1661:1691   */\n      gt\n        /* \"#utility.yul\":1658:1708   */\n      iszero\n      tag_162\n      jumpi\n        /* \"#utility.yul\":1704:1705   */\n      0x00\n        /* \"#utility.yul\":1701:1702   */\n      dup1\n        /* \"#utility.yul\":1694:1706   */\n      revert\n        /* \"#utility.yul\":1658:1708   */\n    tag_162:\n        /* \"#utility.yul\":1727:1777   */\n      tag_163\n        /* \"#utility.yul\":1769:1776   */\n      dup7\n        /* \"#utility.yul\":1760:1766   */\n      dup3\n        /* \"#utility.yul\":1749:1758   */\n      dup8\n        /* \"#utility.yul\":1745:1767   */\n      add\n        /* \"#utility.yul\":1727:1777   */\n      tag_134\n      jump\t// in\n    tag_163:\n        /* \"#utility.yul\":1717:1777   */\n      swap4\n      pop\n      pop\n        /* \"#utility.yul\":1796:1834   */\n      tag_164\n        /* \"#utility.yul\":1830:1832   */\n      0x20\n        /* \"#utility.yul\":1819:1828   */\n      dup6\n        /* \"#utility.yul\":1815:1833   */\n      add\n        /* \"#utility.yul\":1796:1834   */\n      tag_135\n      jump\t// in\n    tag_164:\n        /* \"#utility.yul\":1786:1834   */\n      swap2\n      pop\n        /* \"#utility.yul\":1853:1888   */\n      tag_165\n        /* \"#utility.yul\":1884:1886   */\n      0x40\n        /* \"#utility.yul\":1873:1882   */\n      dup6\n        /* \"#utility.yul\":1869:1887   */\n      add\n        /* \"#utility.yul\":1853:1888   */\n      tag_136\n      jump\t// in\n    tag_165:\n        /* \"#utility.yul\":1843:1888   */\n      swap1\n      pop\n        /* \"#utility.yul\":1430:1894   */\n      swap3\n      pop\n      swap3\n      pop\n      swap3\n      jump\t// out\n        /* \"#utility.yul\":2273:2527   */\n    tag_26:\n        /* \"#utility.yul\":2338:2344   */\n      0x00\n        /* \"#utility.yul\":2346:2352   */\n      dup1\n        /* \"#utility.yul\":2399:2401   */\n      0x40\n        /* \"#utility.yul\":2387:2396   */\n      dup4\n        /* \"#utility.yul\":2378:2385   */\n      dup6\n        /* \"#utility.yul\":2374:2397   */\n      sub\n        /* \"#utility.yul\":2370:2402   */\n      slt\n        /* \"#utility.yul\":2367:2419   */\n      iszero\n      tag_169\n      jumpi\n        /* \"#utility.yul\":2415:2416   */\n      0x00\n        /* \"#utility.yul\":2412:2413   */\n      dup1\n        /* \"#utility.yul\":2405:2417   */\n      revert\n        /* \"#utility.yul\":2367:2419   */\n    tag_169:\n        /* \"#utility.yul\":2438:2467   */\n      tag_170\n        /* \"#utility.yul\":2457:2466   */\n      dup4\n        /* \"#utility.yul\":2438:2467   */\n      tag_135\n      jump\t// in\n    tag_170:\n        /* \"#utility.yul\":2428:2467   */\n      swap2\n      pop\n        /* \"#utility.yul\":2486:2521   */\n      tag_171\n        /* \"#utility.yul\":2517:2519   */\n      0x20\n        /* \"#utility.yul\":2506:2515   */\n      dup5\n        /* \"#utility.yul\":2502:2520   */\n      add\n        /* \"#utility.yul\":2486:2521   */\n      tag_136\n      jump\t// in\n    tag_171:\n        /* \"#utility.yul\":2476:2521   */\n      swap1\n      pop\n        /* \"#utility.yul\":2273:2527   */\n      swap3\n      pop\n      swap3\n      swap1\n      pop\n      jump\t// out\n        /* \"#utility.yul\":2532:2782   */\n    tag_137:\n        /* \"#utility.yul\":2617:2618   */\n      0x00\n        /* \"#utility.yul\":2627:2740   */\n    tag_173:\n        /* \"#utility.yul\":2641:2647   */\n      dup4\n        /* \"#utility.yul\":2638:2639   */\n      dup2\n        /* \"#utility.yul\":2635:2648   */\n      lt\n        /* \"#utility.yul\":2627:2740   */\n      iszero\n      tag_175\n      jumpi\n        /* \"#utility.yul\":2717:2728   */\n      dup2\n      dup2\n      add\n        /* \"#utility.yul\":2711:2729   */\n      mload\n        /* \"#utility.yul\":2698:2709   */\n      dup4\n      dup3\n      add\n        /* \"#utility.yul\":2691:2730   */\n      mstore\n        /* \"#utility.yul\":2663:2665   */\n      0x20\n        /* \"#utility.yul\":2656:2666   */\n      add\n        /* \"#utility.yul\":2627:2740   */\n      jump(tag_173)\n    tag_175:\n      pop\n      pop\n        /* \"#utility.yul\":2774:2775   */\n      0x00\n        /* \"#utility.yul\":2756:2772   */\n      swap2\n      add\n        /* \"#utility.yul\":2749:2776   */\n      mstore\n        /* \"#utility.yul\":2532:2782   */\n      jump\t// out\n        /* \"#utility.yul\":2787:3058   */\n    tag_138:\n        /* \"#utility.yul\":2829:2832   */\n      0x00\n        /* \"#utility.yul\":2867:2872   */\n      dup2\n        /* \"#utility.yul\":2861:2873   */\n      mload\n        /* \"#utility.yul\":2894:2900   */\n      dup1\n        /* \"#utility.yul\":2889:2892   */\n      dup5\n        /* \"#utility.yul\":2882:2901   */\n      mstore\n        /* \"#utility.yul\":2910:2986   */\n      tag_177\n        /* \"#utility.yul\":2979:2985   */\n      dup2\n        /* \"#utility.yul\":2972:2976   */\n      0x20\n        /* \"#utility.yul\":2967:2970   */\n      dup7\n        /* \"#utility.yul\":2963:2977   */\n      add\n        /* \"#utility.yul\":2956:2960   */\n      0x20\n        /* \"#utility.yul\":2949:2954   */\n      dup7\n        /* \"#utility.yul\":2945:2961   */\n      add\n        /* \"#utility.yul\":2910:2986   */\n      tag_137\n      jump\t// in\n    tag_177:\n        /* \"#utility.yul\":3040:3042   */\n      0x1f\n        /* \"#utility.yul\":3019:3034   */\n      add\n      not(0x1f)\n        /* \"#utility.yul\":3015:3044   */\n      and\n        /* \"#utility.yul\":3006:3045   */\n      swap3\n      swap1\n      swap3\n      add\n        /* \"#utility.yul\":3047:3051   */\n      0x20\n        /* \"#utility.yul\":3002:3052   */\n      add\n      swap3\n        /* \"#utility.yul\":2787:3058   */\n      swap2\n      pop\n      pop\n      jump\t// out\n        /* \"#utility.yul\":3063:3283   */\n    tag_32:\n        /* \"#utility.yul\":3212:3214   */\n      0x20\n        /* \"#utility.yul\":3201:3210   */\n      dup2\n        /* \"#utility.yul\":3194:3215   */\n      mstore\n        /* \"#utility.yul\":3175:3179   */\n      0x00\n        /* \"#utility.yul\":3232:3277   */\n      tag_72\n        /* \"#utility.yul\":3273:3275   */\n      0x20\n        /* \"#utility.yul\":3262:3271   */\n      dup4\n        /* \"#utility.yul\":3258:3276   */\n      add\n        /* \"#utility.yul\":3250:3256   */\n      dup5\n        /* \"#utility.yul\":3232:3277   */\n      tag_138\n      jump\t// in\n        /* \"#utility.yul\":3288:3474   */\n    tag_35:\n        /* \"#utility.yul\":3347:3353   */\n      0x00\n        /* \"#utility.yul\":3400:3402   */\n      0x20\n        /* \"#utility.yul\":3388:3397   */\n      dup3\n        /* \"#utility.yul\":3379:3386   */\n      dup5\n        /* \"#utility.yul\":3375:3398   */\n      sub\n        /* \"#utility.yul\":3371:3403   */\n      slt\n        /* \"#utility.yul\":3368:3420   */\n      iszero\n      tag_181\n      jumpi\n        /* \"#utility.yul\":3416:3417   */\n      0x00\n        /* \"#utility.yul\":3413:3414   */\n      dup1\n        /* \"#utility.yul\":3406:3418   */\n      revert\n        /* \"#utility.yul\":3368:3420   */\n    tag_181:\n        /* \"#utility.yul\":3439:3468   */\n      tag_72\n        /* \"#utility.yul\":3458:3467   */\n      dup3\n        /* \"#utility.yul\":3439:3468   */\n      tag_135\n      jump\t// in\n        /* \"#utility.yul\":3479:4077   */\n    tag_139:\n        /* \"#utility.yul\":3531:3534   */\n      0x00\n        /* \"#utility.yul\":3562:3565   */\n      dup3\n        /* \"#utility.yul\":3594:3599   */\n      dup3\n        /* \"#utility.yul\":3588:3600   */\n      mload\n        /* \"#utility.yul\":3621:3627   */\n      dup1\n        /* \"#utility.yul\":3616:3619   */\n      dup6\n        /* \"#utility.yul\":3609:3628   */\n      mstore\n        /* \"#utility.yul\":3647:3651   */\n      0x20\n        /* \"#utility.yul\":3676:3680   */\n      dup1\n        /* \"#utility.yul\":3671:3674   */\n      dup7\n        /* \"#utility.yul\":3667:3681   */\n      add\n        /* \"#utility.yul\":3660:3681   */\n      swap6\n      pop\n        /* \"#utility.yul\":3734:3738   */\n      0x20\n        /* \"#utility.yul\":3724:3730   */\n      dup3\n        /* \"#utility.yul\":3721:3722   */\n      0x05\n        /* \"#utility.yul\":3717:3731   */\n      shl\n        /* \"#utility.yul\":3710:3715   */\n      dup5\n        /* \"#utility.yul\":3706:3732   */\n      add\n        /* \"#utility.yul\":3702:3739   */\n      add\n        /* \"#utility.yul\":3773:3777   */\n      0x20\n        /* \"#utility.yul\":3766:3771   */\n      dup7\n        /* \"#utility.yul\":3762:3778   */\n      add\n        /* \"#utility.yul\":3796:3797   */\n      0x00\n        /* \"#utility.yul\":3806:4051   */\n    tag_184:\n        /* \"#utility.yul\":3820:3826   */\n      dup5\n        /* \"#utility.yul\":3817:3818   */\n      dup2\n        /* \"#utility.yul\":3814:3827   */\n      lt\n        /* \"#utility.yul\":3806:4051   */\n      iszero\n      tag_186\n      jumpi\n        /* \"#utility.yul\":3907:3909   */\n      0x1f\n        /* \"#utility.yul\":3903:3910   */\n      not\n        /* \"#utility.yul\":3895:3900   */\n      dup7\n        /* \"#utility.yul\":3889:3893   */\n      dup5\n        /* \"#utility.yul\":3885:3901   */\n      sub\n        /* \"#utility.yul\":3881:3911   */\n      add\n        /* \"#utility.yul\":3876:3879   */\n      dup10\n        /* \"#utility.yul\":3869:3912   */\n      mstore\n        /* \"#utility.yul\":3933:3971   */\n      tag_187\n        /* \"#utility.yul\":3966:3970   */\n      dup4\n        /* \"#utility.yul\":3957:3963   */\n      dup4\n        /* \"#utility.yul\":3951:3964   */\n      mload\n        /* \"#utility.yul\":3933:3971   */\n      tag_138\n      jump\t// in\n    tag_187:\n        /* \"#utility.yul\":4029:4041   */\n      swap9\n      dup5\n      add\n      swap9\n        /* \"#utility.yul\":3925:3971   */\n      swap3\n      pop\n        /* \"#utility.yul\":3994:4009   */\n      swap1\n      dup4\n      add\n      swap1\n        /* \"#utility.yul\":3842:3843   */\n      0x01\n        /* \"#utility.yul\":3835:3844   */\n      add\n        /* \"#utility.yul\":3806:4051   */\n      jump(tag_184)\n    tag_186:\n      pop\n        /* \"#utility.yul\":4067:4071   */\n      swap1\n      swap8\n        /* \"#utility.yul\":3479:4077   */\n      swap7\n      pop\n      pop\n      pop\n      pop\n      pop\n      pop\n      pop\n      jump\t// out\n        /* \"#utility.yul\":4082:4931   */\n    tag_49:\n        /* \"#utility.yul\":4359:4361   */\n      0x40\n        /* \"#utility.yul\":4348:4357   */\n      dup2\n        /* \"#utility.yul\":4341:4362   */\n      mstore\n        /* \"#utility.yul\":4322:4326   */\n      0x00\n        /* \"#utility.yul\":4385:4440   */\n      tag_189\n        /* \"#utility.yul\":4436:4438   */\n      0x40\n        /* \"#utility.yul\":4425:4434   */\n      dup4\n        /* \"#utility.yul\":4421:4439   */\n      add\n        /* \"#utility.yul\":4413:4419   */\n      dup6\n        /* \"#utility.yul\":4385:4440   */\n      tag_139\n      jump\t// in\n    tag_189:\n        /* \"#utility.yul\":4497:4519   */\n      dup3\n      dup2\n      sub\n        /* \"#utility.yul\":4459:4461   */\n      0x20\n        /* \"#utility.yul\":4477:4495   */\n      dup5\n      dup2\n      add\n        /* \"#utility.yul\":4470:4520   */\n      swap2\n      swap1\n      swap2\n      mstore\n        /* \"#utility.yul\":4569:4582   */\n      dup5\n      mload\n        /* \"#utility.yul\":4591:4613   */\n      dup1\n      dup4\n      mstore\n        /* \"#utility.yul\":4667:4682   */\n      dup6\n      dup3\n      add\n      swap3\n        /* \"#utility.yul\":4629:4644   */\n      dup3\n      add\n      swap1\n        /* \"#utility.yul\":4700:4701   */\n      0x00\n        /* \"#utility.yul\":4710:4905   */\n    tag_190:\n        /* \"#utility.yul\":4724:4730   */\n      dup2\n        /* \"#utility.yul\":4721:4722   */\n      dup2\n        /* \"#utility.yul\":4718:4731   */\n      lt\n        /* \"#utility.yul\":4710:4905   */\n      iszero\n      tag_186\n      jumpi\n        /* \"#utility.yul\":4789:4802   */\n      dup5\n      mload\n      sub(shl(0xa0, 0x01), 0x01)\n        /* \"#utility.yul\":4785:4824   */\n      and\n        /* \"#utility.yul\":4773:4825   */\n      dup4\n      mstore\n        /* \"#utility.yul\":4880:4895   */\n      swap4\n      dup4\n      add\n      swap4\n        /* \"#utility.yul\":4845:4857   */\n      swap2\n      dup4\n      add\n      swap2\n        /* \"#utility.yul\":4821:4822   */\n      0x01\n        /* \"#utility.yul\":4739:4748   */\n      add\n        /* \"#utility.yul\":4710:4905   */\n      jump(tag_190)\n        /* \"#utility.yul\":4936:5258   */\n    tag_52:\n        /* \"#utility.yul\":5005:5011   */\n      0x00\n        /* \"#utility.yul\":5058:5060   */\n      0x20\n        /* \"#utility.yul\":5046:5055   */\n      dup3\n        /* \"#utility.yul\":5037:5044   */\n      dup5\n        /* \"#utility.yul\":5033:5056   */\n      sub\n        /* \"#utility.yul\":5029:5061   */\n      slt\n        /* \"#utility.yul\":5026:5078   */\n      iszero\n      tag_194\n      jumpi\n        /* \"#utility.yul\":5074:5075   */\n      0x00\n        /* \"#utility.yul\":5071:5072   */\n      dup1\n        /* \"#utility.yul\":5064:5076   */\n      revert\n        /* \"#utility.yul\":5026:5078   */\n    tag_194:\n        /* \"#utility.yul\":5114:5123   */\n      dup2\n        /* \"#utility.yul\":5101:5124   */\n      calldataload\n        /* \"#utility.yul\":5147:5165   */\n      0xffffffffffffffff\n        /* \"#utility.yul\":5139:5145   */\n      dup2\n        /* \"#utility.yul\":5136:5166   */\n      gt\n        /* \"#utility.yul\":5133:5183   */\n      iszero\n      tag_195\n      jumpi\n        /* \"#utility.yul\":5179:5180   */\n      0x00\n        /* \"#utility.yul\":5176:5177   */\n      dup1\n        /* \"#utility.yul\":5169:5181   */\n      revert\n        /* \"#utility.yul\":5133:5183   */\n    tag_195:\n        /* \"#utility.yul\":5202:5252   */\n      tag_65\n        /* \"#utility.yul\":5244:5251   */\n      dup5\n        /* \"#utility.yul\":5235:5241   */\n      dup3\n        /* \"#utility.yul\":5224:5233   */\n      dup6\n        /* \"#utility.yul\":5220:5242   */\n      add\n        /* \"#utility.yul\":5202:5252   */\n      tag_134\n      jump\t// in\n        /* \"#utility.yul\":5471:5751   */\n    tag_59:\n        /* \"#utility.yul\":5670:5672   */\n      0x20\n        /* \"#utility.yul\":5659:5668   */\n      dup2\n        /* \"#utility.yul\":5652:5673   */\n      mstore\n        /* \"#utility.yul\":5633:5637   */\n      0x00\n        /* \"#utility.yul\":5690:5745   */\n      tag_72\n        /* \"#utility.yul\":5741:5743   */\n      0x20\n        /* \"#utility.yul\":5730:5739   */\n      dup4\n        /* \"#utility.yul\":5726:5744   */\n      add\n        /* \"#utility.yul\":5718:5724   */\n      dup5\n        /* \"#utility.yul\":5690:5745   */\n      tag_139\n      jump\t// in\n        /* \"#utility.yul\":5756:6090   */\n    tag_63:\n        /* \"#utility.yul\":5958:5960   */\n      0x20\n        /* \"#utility.yul\":5940:5961   */\n      dup1\n      dup3\n      mstore\n        /* \"#utility.yul\":5997:5999   */\n      0x0a\n        /* \"#utility.yul\":5977:5995   */\n      swap1\n      dup3\n      add\n        /* \"#utility.yul\":5970:6000   */\n      mstore\n      shl(0xb0, 0x61646d696e206f6e6c79)\n        /* \"#utility.yul\":6031:6033   */\n      0x40\n        /* \"#utility.yul\":6016:6034   */\n      dup3\n      add\n        /* \"#utility.yul\":6009:6049   */\n      mstore\n        /* \"#utility.yul\":6081:6083   */\n      0x60\n        /* \"#utility.yul\":6066:6084   */\n      add\n      swap1\n        /* \"#utility.yul\":5756:6090   */\n      jump\t// out\n        /* \"#utility.yul\":6095:6744   */\n    tag_76:\n        /* \"#utility.yul\":6175:6181   */\n      0x00\n        /* \"#utility.yul\":6228:6230   */\n      0x20\n        /* \"#utility.yul\":6216:6225   */\n      dup3\n        /* \"#utility.yul\":6207:6214   */\n      dup5\n        /* \"#utility.yul\":6203:6226   */\n      sub\n        /* \"#utility.yul\":6199:6231   */\n      slt\n        /* \"#utility.yul\":6196:6248   */\n      iszero\n      tag_202\n      jumpi\n        /* \"#utility.yul\":6244:6245   */\n      0x00\n        /* \"#utility.yul\":6241:6242   */\n      dup1\n        /* \"#utility.yul\":6234:6246   */\n      revert\n        /* \"#utility.yul\":6196:6248   */\n    tag_202:\n        /* \"#utility.yul\":6277:6286   */\n      dup2\n        /* \"#utility.yul\":6271:6287   */\n      mload\n        /* \"#utility.yul\":6310:6328   */\n      0xffffffffffffffff\n        /* \"#utility.yul\":6302:6308   */\n      dup2\n        /* \"#utility.yul\":6299:6329   */\n      gt\n        /* \"#utility.yul\":6296:6346   */\n      iszero\n      tag_203\n      jumpi\n        /* \"#utility.yul\":6342:6343   */\n      0x00\n        /* \"#utility.yul\":6339:6340   */\n      dup1\n        /* \"#utility.yul\":6332:6344   */\n      revert\n        /* \"#utility.yul\":6296:6346   */\n    tag_203:\n        /* \"#utility.yul\":6365:6387   */\n      dup3\n      add\n        /* \"#utility.yul\":6418:6422   */\n      0x1f\n        /* \"#utility.yul\":6410:6423   */\n      dup2\n      add\n        /* \"#utility.yul\":6406:6433   */\n      dup5\n      sgt\n        /* \"#utility.yul\":6396:6451   */\n      tag_204\n      jumpi\n        /* \"#utility.yul\":6447:6448   */\n      0x00\n        /* \"#utility.yul\":6444:6445   */\n      dup1\n        /* \"#utility.yul\":6437:6449   */\n      revert\n        /* \"#utility.yul\":6396:6451   */\n    tag_204:\n        /* \"#utility.yul\":6476:6478   */\n      dup1\n        /* \"#utility.yul\":6470:6479   */\n      mload\n        /* \"#utility.yul\":6501:6550   */\n      tag_205\n        /* \"#utility.yul\":6517:6549   */\n      tag_154\n        /* \"#utility.yul\":6546:6548   */\n      dup3\n        /* \"#utility.yul\":6517:6549   */\n      tag_133\n      jump\t// in\n        /* \"#utility.yul\":6501:6550   */\n    tag_205:\n        /* \"#utility.yul\":6573:6575   */\n      dup2\n        /* \"#utility.yul\":6566:6571   */\n      dup2\n        /* \"#utility.yul\":6559:6576   */\n      mstore\n        /* \"#utility.yul\":6613:6620   */\n      dup6\n        /* \"#utility.yul\":6608:6610   */\n      0x20\n        /* \"#utility.yul\":6603:6605   */\n      dup4\n        /* \"#utility.yul\":6599:6601   */\n      dup6\n        /* \"#utility.yul\":6595:6606   */\n      add\n        /* \"#utility.yul\":6591:6611   */\n      add\n        /* \"#utility.yul\":6588:6621   */\n      gt\n        /* \"#utility.yul\":6585:6638   */\n      iszero\n      tag_207\n      jumpi\n        /* \"#utility.yul\":6634:6635   */\n      0x00\n        /* \"#utility.yul\":6631:6632   */\n      dup1\n        /* \"#utility.yul\":6624:6636   */\n      revert\n        /* \"#utility.yul\":6585:6638   */\n    tag_207:\n        /* \"#utility.yul\":6647:6714   */\n      tag_208\n        /* \"#utility.yul\":6711:6713   */\n      dup3\n        /* \"#utility.yul\":6706:6708   */\n      0x20\n        /* \"#utility.yul\":6699:6704   */\n      dup4\n        /* \"#utility.yul\":6695:6709   */\n      add\n        /* \"#utility.yul\":6690:6692   */\n      0x20\n        /* \"#utility.yul\":6686:6688   */\n      dup7\n        /* \"#utility.yul\":6682:6693   */\n      add\n        /* \"#utility.yul\":6647:6714   */\n      tag_137\n      jump\t// in\n    tag_208:\n        /* \"#utility.yul\":6733:6738   */\n      swap6\n        /* \"#utility.yul\":6095:6744   */\n      swap5\n      pop\n      pop\n      pop\n      pop\n      pop\n      jump\t// out\n        /* \"#utility.yul\":6749:7129   */\n    tag_81:\n        /* \"#utility.yul\":6828:6829   */\n      0x01\n        /* \"#utility.yul\":6824:6836   */\n      dup2\n      dup2\n      shr\n      swap1\n        /* \"#utility.yul\":6871:6883   */\n      dup3\n      and\n      dup1\n        /* \"#utility.yul\":6892:6953   */\n      tag_210\n      jumpi\n        /* \"#utility.yul\":6946:6950   */\n      0x7f\n        /* \"#utility.yul\":6938:6944   */\n      dup3\n        /* \"#utility.yul\":6934:6951   */\n      and\n        /* \"#utility.yul\":6924:6951   */\n      swap2\n      pop\n        /* \"#utility.yul\":6892:6953   */\n    tag_210:\n        /* \"#utility.yul\":6999:7001   */\n      0x20\n        /* \"#utility.yul\":6991:6997   */\n      dup3\n        /* \"#utility.yul\":6988:7002   */\n      lt\n        /* \"#utility.yul\":6968:6986   */\n      dup2\n        /* \"#utility.yul\":6965:7003   */\n      sub\n        /* \"#utility.yul\":6962:7123   */\n      tag_211\n      jumpi\n        /* \"#utility.yul\":7045:7055   */\n      0x4e487b71\n        /* \"#utility.yul\":7040:7043   */\n      0xe0\n        /* \"#utility.yul\":7036:7056   */\n      shl\n        /* \"#utility.yul\":7033:7034   */\n      0x00\n        /* \"#utility.yul\":7026:7057   */\n      mstore\n        /* \"#utility.yul\":7080:7084   */\n      0x22\n        /* \"#utility.yul\":7077:7078   */\n      0x04\n        /* \"#utility.yul\":7070:7085   */\n      mstore\n        /* \"#utility.yul\":7108:7112   */\n      0x24\n        /* \"#utility.yul\":7105:7106   */\n      0x00\n        /* \"#utility.yul\":7098:7113   */\n      revert\n        /* \"#utility.yul\":6962:7123   */\n    tag_211:\n      pop\n        /* \"#utility.yul\":6749:7129   */\n      swap2\n      swap1\n      pop\n      jump\t// out\n        /* \"#utility.yul\":7134:7261   */\n    tag_100:\n        /* \"#utility.yul\":7195:7205   */\n      0x4e487b71\n        /* \"#utility.yul\":7190:7193   */\n      0xe0\n        /* \"#utility.yul\":7186:7206   */\n      shl\n        /* \"#utility.yul\":7183:7184   */\n      0x00\n        /* \"#utility.yul\":7176:7207   */\n      mstore\n        /* \"#utility.yul\":7226:7230   */\n      0x32\n        /* \"#utility.yul\":7223:7224   */\n      0x04\n        /* \"#utility.yul\":7216:7231   */\n      mstore\n        /* \"#utility.yul\":7250:7254   */\n      0x24\n        /* \"#utility.yul\":7247:7248   */\n      0x00\n        /* \"#utility.yul\":7240:7255   */\n      revert\n        /* \"#utility.yul\":7392:8235   */\n    tag_103:\n        /* \"#utility.yul\":7520:7523   */\n      0x00\n        /* \"#utility.yul\":7549:7550   */\n      dup1\n        /* \"#utility.yul\":7582:7588   */\n      dup4\n        /* \"#utility.yul\":7576:7589   */\n      sload\n        /* \"#utility.yul\":7612:7648   */\n      tag_215\n        /* \"#utility.yul\":7638:7647   */\n      dup2\n        /* \"#utility.yul\":7612:7648   */\n      tag_81\n      jump\t// in\n    tag_215:\n        /* \"#utility.yul\":7667:7668   */\n      0x01\n        /* \"#utility.yul\":7684:7701   */\n      dup3\n      dup2\n      and\n        /* \"#utility.yul\":7710:7843   */\n      dup1\n      iszero\n      tag_217\n      jumpi\n        /* \"#utility.yul\":7857:7858   */\n      0x01\n        /* \"#utility.yul\":7852:8210   */\n      dup2\n      eq\n      tag_218\n      jumpi\n        /* \"#utility.yul\":7677:8210   */\n      jump(tag_216)\n        /* \"#utility.yul\":7710:7843   */\n    tag_217:\n      not(0xff)\n        /* \"#utility.yul\":7743:7767   */\n      dup5\n      and\n        /* \"#utility.yul\":7731:7768   */\n      dup8\n      mstore\n        /* \"#utility.yul\":7816:7830   */\n      dup3\n      iszero\n        /* \"#utility.yul\":7809:7831   */\n      iszero\n        /* \"#utility.yul\":7797:7832   */\n      dup4\n      mul\n        /* \"#utility.yul\":7788:7833   */\n      dup8\n      add\n      swap5\n      pop\n        /* \"#utility.yul\":7710:7843   */\n      jump(tag_216)\n        /* \"#utility.yul\":7852:8210   */\n    tag_218:\n        /* \"#utility.yul\":7883:7889   */\n      dup8\n        /* \"#utility.yul\":7880:7881   */\n      0x00\n        /* \"#utility.yul\":7873:7890   */\n      mstore\n        /* \"#utility.yul\":7913:7917   */\n      0x20\n        /* \"#utility.yul\":7958:7962   */\n      dup1\n        /* \"#utility.yul\":7955:7956   */\n      0x00\n        /* \"#utility.yul\":7945:7963   */\n      keccak256\n        /* \"#utility.yul\":7985:7986   */\n      0x00\n        /* \"#utility.yul\":7999:8164   */\n    tag_219:\n        /* \"#utility.yul\":8013:8019   */\n      dup6\n        /* \"#utility.yul\":8010:8011   */\n      dup2\n        /* \"#utility.yul\":8007:8020   */\n      lt\n        /* \"#utility.yul\":7999:8164   */\n      iszero\n      tag_221\n      jumpi\n        /* \"#utility.yul\":8091:8105   */\n      dup2\n      sload\n        /* \"#utility.yul\":8078:8089   */\n      dup11\n      dup3\n      add\n        /* \"#utility.yul\":8071:8106   */\n      mstore\n        /* \"#utility.yul\":8134:8150   */\n      swap1\n      dup5\n      add\n      swap1\n        /* \"#utility.yul\":8028:8038   */\n      dup3\n      add\n        /* \"#utility.yul\":7999:8164   */\n      jump(tag_219)\n    tag_221:\n        /* \"#utility.yul\":8003:8006   */\n      pop\n      pop\n      pop\n        /* \"#utility.yul\":8193:8199   */\n      dup3\n        /* \"#utility.yul\":8188:8191   */\n      dup8\n        /* \"#utility.yul\":8184:8200   */\n      add\n        /* \"#utility.yul\":8177:8200   */\n      swap5\n      pop\n        /* \"#utility.yul\":7677:8210   */\n    tag_216:\n      pop\n        /* \"#utility.yul\":8226:8229   */\n      swap3\n      swap7\n        /* \"#utility.yul\":7392:8235   */\n      swap6\n      pop\n      pop\n      pop\n      pop\n      pop\n      pop\n      jump\t// out\n        /* \"#utility.yul\":8240:8529   */\n    tag_116:\n        /* \"#utility.yul\":8371:8374   */\n      0x00\n        /* \"#utility.yul\":8409:8415   */\n      dup3\n        /* \"#utility.yul\":8403:8416   */\n      mload\n        /* \"#utility.yul\":8425:8491   */\n      tag_223\n        /* \"#utility.yul\":8484:8490   */\n      dup2\n        /* \"#utility.yul\":8479:8482   */\n      dup5\n        /* \"#utility.yul\":8472:8476   */\n      0x20\n        /* \"#utility.yul\":8464:8470   */\n      dup8\n        /* \"#utility.yul\":8460:8477   */\n      add\n        /* \"#utility.yul\":8425:8491   */\n      tag_137\n      jump\t// in\n    tag_223:\n        /* \"#utility.yul\":8507:8523   */\n      swap2\n      swap1\n      swap2\n      add\n      swap3\n        /* \"#utility.yul\":8240:8529   */\n      swap2\n      pop\n      pop\n      jump\t// out\n        /* \"#utility.yul\":8534:9077   */\n    tag_141:\n        /* \"#utility.yul\":8636:8638   */\n      0x1f\n        /* \"#utility.yul\":8631:8634   */\n      dup3\n        /* \"#utility.yul\":8628:8639   */\n      gt\n        /* \"#utility.yul\":8625:9071   */\n      iszero\n      tag_225\n      jumpi\n        /* \"#utility.yul\":8672:8673   */\n      0x00\n        /* \"#utility.yul\":8696:8701   */\n      dup2\n        /* \"#utility.yul\":8693:8694   */\n      0x00\n        /* \"#utility.yul\":8686:8702   */\n      mstore\n        /* \"#utility.yul\":8740:8744   */\n      0x20\n        /* \"#utility.yul\":8737:8738   */\n      0x00\n        /* \"#utility.yul\":8727:8745   */\n      keccak256\n        /* \"#utility.yul\":8810:8812   */\n      0x1f\n        /* \"#utility.yul\":8798:8808   */\n      dup6\n        /* \"#utility.yul\":8794:8813   */\n      add\n        /* \"#utility.yul\":8791:8792   */\n      0x05\n        /* \"#utility.yul\":8787:8814   */\n      shr\n        /* \"#utility.yul\":8781:8785   */\n      dup2\n        /* \"#utility.yul\":8777:8815   */\n      add\n        /* \"#utility.yul\":8846:8850   */\n      0x20\n        /* \"#utility.yul\":8834:8844   */\n      dup7\n        /* \"#utility.yul\":8831:8851   */\n      lt\n        /* \"#utility.yul\":8828:8875   */\n      iszero\n      tag_226\n      jumpi\n      pop\n        /* \"#utility.yul\":8869:8873   */\n      dup1\n        /* \"#utility.yul\":8828:8875   */\n    tag_226:\n        /* \"#utility.yul\":8924:8926   */\n      0x1f\n        /* \"#utility.yul\":8919:8922   */\n      dup6\n        /* \"#utility.yul\":8915:8927   */\n      add\n        /* \"#utility.yul\":8912:8913   */\n      0x05\n        /* \"#utility.yul\":8908:8928   */\n      shr\n        /* \"#utility.yul\":8902:8906   */\n      dup3\n        /* \"#utility.yul\":8898:8929   */\n      add\n        /* \"#utility.yul\":8888:8929   */\n      swap2\n      pop\n        /* \"#utility.yul\":8979:9061   */\n    tag_227:\n        /* \"#utility.yul\":8997:8999   */\n      dup2\n        /* \"#utility.yul\":8990:8995   */\n      dup2\n        /* \"#utility.yul\":8987:9000   */\n      lt\n        /* \"#utility.yul\":8979:9061   */\n      iszero\n      tag_229\n      jumpi\n        /* \"#utility.yul\":9042:9059   */\n      dup3\n      dup2\n      sstore\n        /* \"#utility.yul\":9023:9024   */\n      0x01\n        /* \"#utility.yul\":9012:9025   */\n      add\n        /* \"#utility.yul\":8979:9061   */\n      jump(tag_227)\n    tag_229:\n        /* \"#utility.yul\":8983:8986   */\n      pop\n      pop\n      pop\n        /* \"#utility.yul\":8625:9071   */\n    tag_225:\n        /* \"#utility.yul\":8534:9077   */\n      pop\n      pop\n      pop\n      jump\t// out\n        /* \"#utility.yul\":9253:10598   */\n    tag_129:\n        /* \"#utility.yul\":9379:9382   */\n      dup2\n        /* \"#utility.yul\":9373:9383   */\n      mload\n        /* \"#utility.yul\":9406:9424   */\n      0xffffffffffffffff\n        /* \"#utility.yul\":9398:9404   */\n      dup2\n        /* \"#utility.yul\":9395:9425   */\n      gt\n        /* \"#utility.yul\":9392:9448   */\n      iszero\n      tag_233\n      jumpi\n        /* \"#utility.yul\":9428:9446   */\n      tag_233\n      tag_93\n      jump\t// in\n    tag_233:\n        /* \"#utility.yul\":9457:9554   */\n      tag_234\n        /* \"#utility.yul\":9547:9553   */\n      dup2\n        /* \"#utility.yul\":9507:9545   */\n      tag_235\n        /* \"#utility.yul\":9539:9543   */\n      dup5\n        /* \"#utility.yul\":9533:9544   */\n      sload\n        /* \"#utility.yul\":9507:9545   */\n      tag_81\n      jump\t// in\n    tag_235:\n        /* \"#utility.yul\":9501:9505   */\n      dup5\n        /* \"#utility.yul\":9457:9554   */\n      tag_141\n      jump\t// in\n    tag_234:\n        /* \"#utility.yul\":9609:9613   */\n      0x20\n      dup1\n        /* \"#utility.yul\":9666:9668   */\n      0x1f\n        /* \"#utility.yul\":9655:9669   */\n      dup4\n      gt\n        /* \"#utility.yul\":9683:9684   */\n      0x01\n        /* \"#utility.yul\":9678:10341   */\n      dup2\n      eq\n      tag_237\n      jumpi\n        /* \"#utility.yul\":10385:10386   */\n      0x00\n        /* \"#utility.yul\":10402:10408   */\n      dup5\n        /* \"#utility.yul\":10399:10488   */\n      iszero\n      tag_238\n      jumpi\n      pop\n        /* \"#utility.yul\":10454:10473   */\n      dup6\n      dup4\n      add\n        /* \"#utility.yul\":10448:10474   */\n      mload\n        /* \"#utility.yul\":10399:10488   */\n    tag_238:\n      not(0x00)\n        /* \"#utility.yul\":9210:9211   */\n      0x03\n        /* \"#utility.yul\":9206:9217   */\n      dup7\n      swap1\n      shl\n        /* \"#utility.yul\":9202:9226   */\n      shr\n        /* \"#utility.yul\":9198:9227   */\n      not\n        /* \"#utility.yul\":9188:9228   */\n      and\n        /* \"#utility.yul\":9234:9235   */\n      0x01\n        /* \"#utility.yul\":9230:9241   */\n      dup6\n      swap1\n      shl\n        /* \"#utility.yul\":9185:9242   */\n      or\n        /* \"#utility.yul\":10501:10582   */\n      dup6\n      sstore\n        /* \"#utility.yul\":9648:10592   */\n      jump(tag_229)\n        /* \"#utility.yul\":9678:10341   */\n    tag_237:\n        /* \"#utility.yul\":7339:7340   */\n      0x00\n        /* \"#utility.yul\":7332:7346   */\n      dup6\n      dup2\n      mstore\n        /* \"#utility.yul\":7376:7380   */\n      0x20\n        /* \"#utility.yul\":7363:7381   */\n      dup2\n      keccak256\n      not(0x1f)\n        /* \"#utility.yul\":9714:9734   */\n      dup7\n      and\n      swap2\n        /* \"#utility.yul\":9832:10068   */\n    tag_241:\n        /* \"#utility.yul\":9846:9853   */\n      dup3\n        /* \"#utility.yul\":9843:9844   */\n      dup2\n        /* \"#utility.yul\":9840:9854   */\n      lt\n        /* \"#utility.yul\":9832:10068   */\n      iszero\n      tag_243\n      jumpi\n        /* \"#utility.yul\":9935:9954   */\n      dup9\n      dup7\n      add\n        /* \"#utility.yul\":9929:9955   */\n      mload\n        /* \"#utility.yul\":9914:9956   */\n      dup3\n      sstore\n        /* \"#utility.yul\":10027:10054   */\n      swap5\n      dup5\n      add\n      swap5\n        /* \"#utility.yul\":9995:9996   */\n      0x01\n        /* \"#utility.yul\":9983:9997   */\n      swap1\n      swap2\n      add\n      swap1\n        /* \"#utility.yul\":9862:9881   */\n      dup5\n      add\n        /* \"#utility.yul\":9832:10068   */\n      jump(tag_241)\n    tag_243:\n        /* \"#utility.yul\":9836:9839   */\n      pop\n        /* \"#utility.yul\":10096:10102   */\n      dup6\n        /* \"#utility.yul\":10087:10094   */\n      dup3\n        /* \"#utility.yul\":10084:10103   */\n      lt\n        /* \"#utility.yul\":10081:10282   */\n      iszero\n      tag_244\n      jumpi\n        /* \"#utility.yul\":10157:10176   */\n      dup8\n      dup6\n      add\n        /* \"#utility.yul\":10151:10177   */\n      mload\n      not(0x00)\n        /* \"#utility.yul\":10240:10241   */\n      0x03\n        /* \"#utility.yul\":10236:10250   */\n      dup9\n      swap1\n      shl\n        /* \"#utility.yul\":10252:10255   */\n      0xf8\n        /* \"#utility.yul\":10232:10256   */\n      and\n        /* \"#utility.yul\":10228:10265   */\n      shr\n        /* \"#utility.yul\":10224:10266   */\n      not\n        /* \"#utility.yul\":10209:10267   */\n      and\n        /* \"#utility.yul\":10194:10268   */\n      dup2\n      sstore\n        /* \"#utility.yul\":10081:10282   */\n    tag_244:\n      pop\n      pop\n      pop\n      pop\n      pop\n        /* \"#utility.yul\":10328:10329   */\n      0x01\n        /* \"#utility.yul\":10312:10326   */\n      swap1\n      dup2\n      shl\n        /* \"#utility.yul\":10308:10330   */\n      add\n        /* \"#utility.yul\":10295:10331   */\n      swap1\n      sstore\n      pop\n        /* \"#utility.yul\":9253:10598   */\n      jump\t// out\n\n    auxdata: 0xa26469706673582212200d739c38fbee476fa5c67c875d788fb8bfc2b12ec77f72a92b723027d662099f64736f6c63430008160033\n}\n",
				"bytecode": {
					"linkReferences": {},
					"object": "608060405234801561001057600080fd5b50604051610d7b380380610d7b83398101604081905261002f91610054565b600080546001600160a01b0319166001600160a01b0392909216919091179055610084565b60006020828403121561006657600080fd5b81516001600160a01b038116811461007d57600080fd5b9392505050565b610ce8806100936000396000f3fe608060405234801561001057600080fd5b506004361061009e5760003560e01c80635fd4b08a116100665780635fd4b08a146101535780638f28397014610166578063a39fac1214610179578063bf40fac11461018f578063cd838f0f146101ba57600080fd5b806309c16160146100a35780630d8e6e2c146100cb57806312b164c8146100da57806317d7de7c146100ed5780632f9ec7ba14610127575b600080fd5b6100b66100b1366004610820565b6101cf565b60405190151581526020015b60405180910390f35b604051600181526020016100c2565b6100b66100e836600461087e565b610216565b604080518082019091526015815274424b535f4f50535f52454749535445525f434f524560581b60208201525b6040516100c29190610901565b6100b6610135366004610914565b6001600160a01b031660009081526003602052604090205460ff1690565b61011a610161366004610914565b6102b8565b6100b6610174366004610914565b610364565b6101816103b3565b6040516100c2929190610989565b6101a261019d3660046109dc565b610567565b6040516001600160a01b0390911681526020016100c2565b6101c2610598565b6040516100c29190610a11565b600080546001600160a01b031633146102035760405162461bcd60e51b81526004016101fa90610a24565b60405180910390fd5b61020e848484610671565b949350505050565b600080546001600160a01b031633146102415760405162461bcd60e51b81526004016101fa90610a24565b6102b1836001600160a01b03166317d7de7c6040518163ffffffff1660e01b8152600401600060405180830381865afa158015610282573d6000803e3d6000fd5b505050506040513d6000823e601f3d908101601f191682016040526102aa9190810190610a48565b8484610671565b9392505050565b6001600160a01b03811660009081526004602052604090208054606091906102df90610abf565b80601f016020809104026020016040519081016040528092919081815260200182805461030b90610abf565b80156103585780601f1061032d57610100808354040283529160200191610358565b820191906000526020600020905b81548152906001019060200180831161033b57829003601f168201915b50505050509050919050565b600080546001600160a01b0316331461038f5760405162461bcd60e51b81526004016101fa90610a24565b50600080546001600160a01b0319166001600160a01b03831617905560015b919050565b600154606090819067ffffffffffffffff8111156103d3576103d3610734565b6040519080825280602002602001820160405280156103fc578160200160208202803683370190505b50905060005b6001548110156104885760026001828154811061042157610421610af9565b906000526020600020016040516104389190610b0f565b9081526040519081900360200190205482516001600160a01b039091169083908390811061046857610468610af9565b6001600160a01b0390921660209283029190910190910152600101610402565b5060018181805480602002602001604051908101604052809291908181526020016000905b828210156105595783829060005260206000200180546104cc90610abf565b80601f01602080910402602001604051908101604052809291908181526020018280546104f890610abf565b80156105455780601f1061051a57610100808354040283529160200191610545565b820191906000526020600020905b81548152906001019060200180831161052857829003601f168201915b5050505050815260200190600101906104ad565b505050509150915091509091565b60006002826040516105799190610b85565b908152604051908190036020019020546001600160a01b031692915050565b60606001805480602002602001604051908101604052809291908181526020016000905b828210156106685783829060005260206000200180546105db90610abf565b80601f016020809104026020016040519081016040528092919081815260200182805461060790610abf565b80156106545780601f1061062957610100808354040283529160200191610654565b820191906000526020600020905b81548152906001019060200180831161063757829003601f168201915b5050505050815260200190600101906105bc565b50505050905090565b60018054808201825560009182527fb10e2d527612073b26eecdfd717e6a320cf44b4afac2b0732d9fcbe2b7fa0cf6016106ab8582610bf2565b506001600160a01b03831660009081526004602052604090206106ce8582610bf2565b50826002856040516106e09190610b85565b908152604080516020928190038301902080546001600160a01b0319166001600160a01b03948516179055949091166000908152600390915292909220805460ff1916911515919091179055506001919050565b634e487b7160e01b600052604160045260246000fd5b604051601f8201601f1916810167ffffffffffffffff8111828210171561077357610773610734565b604052919050565b600067ffffffffffffffff82111561079557610795610734565b50601f01601f191660200190565b600082601f8301126107b457600080fd5b81356107c76107c28261077b565b61074a565b8181528460208386010111156107dc57600080fd5b816020850160208301376000918101602001919091529392505050565b80356001600160a01b03811681146103ae57600080fd5b803580151581146103ae57600080fd5b60008060006060848603121561083557600080fd5b833567ffffffffffffffff81111561084c57600080fd5b610858868287016107a3565b935050610867602085016107f9565b915061087560408501610810565b90509250925092565b6000806040838503121561089157600080fd5b61089a836107f9565b91506108a860208401610810565b90509250929050565b60005b838110156108cc5781810151838201526020016108b4565b50506000910152565b600081518084526108ed8160208601602086016108b1565b601f01601f19169290920160200192915050565b6020815260006102b160208301846108d5565b60006020828403121561092657600080fd5b6102b1826107f9565b60008282518085526020808601955060208260051b8401016020860160005b8481101561097c57601f1986840301895261096a8383516108d5565b9884019892509083019060010161094e565b5090979650505050505050565b60408152600061099c604083018561092f565b82810360208481019190915284518083528582019282019060005b8181101561097c5784516001600160a01b0316835293830193918301916001016109b7565b6000602082840312156109ee57600080fd5b813567ffffffffffffffff811115610a0557600080fd5b61020e848285016107a3565b6020815260006102b1602083018461092f565b6020808252600a908201526961646d696e206f6e6c7960b01b604082015260600190565b600060208284031215610a5a57600080fd5b815167ffffffffffffffff811115610a7157600080fd5b8201601f81018413610a8257600080fd5b8051610a906107c28261077b565b818152856020838501011115610aa557600080fd5b610ab68260208301602086016108b1565b95945050505050565b600181811c90821680610ad357607f821691505b602082108103610af357634e487b7160e01b600052602260045260246000fd5b50919050565b634e487b7160e01b600052603260045260246000fd5b6000808354610b1d81610abf565b60018281168015610b355760018114610b4a57610b79565b60ff1984168752821515830287019450610b79565b8760005260208060002060005b85811015610b705781548a820152908401908201610b57565b50505082870194505b50929695505050505050565b60008251610b978184602087016108b1565b9190910192915050565b601f821115610bed576000816000526020600020601f850160051c81016020861015610bca5750805b601f850160051c820191505b81811015610be957828155600101610bd6565b5050505b505050565b815167ffffffffffffffff811115610c0c57610c0c610734565b610c2081610c1a8454610abf565b84610ba1565b602080601f831160018114610c555760008415610c3d5750858301515b600019600386901b1c1916600185901b178555610be9565b600085815260208120601f198616915b82811015610c8457888601518255948401946001909101908401610c65565b5085821015610ca25787850151600019600388901b60f8161c191681555b5050505050600190811b0190555056fea26469706673582212200d739c38fbee476fa5c67c875d788fb8bfc2b12ec77f72a92b723027d662099f64736f6c63430008160033",
					"opcodes": "PUSH1 0x80 PUSH1 0x40 MSTORE CALLVALUE DUP1 ISZERO PUSH2 0x10 JUMPI PUSH1 0x0 DUP1 REVERT JUMPDEST POP PUSH1 0x40 MLOAD PUSH2 0xD7B CODESIZE SUB DUP1 PUSH2 0xD7B DUP4 CODECOPY DUP2 ADD PUSH1 0x40 DUP2 SWAP1 MSTORE PUSH2 0x2F SWAP2 PUSH2 0x54 JUMP JUMPDEST PUSH1 0x0 DUP1 SLOAD PUSH1 0x1 PUSH1 0x1 PUSH1 0xA0 SHL SUB NOT AND PUSH1 0x1 PUSH1 0x1 PUSH1 0xA0 SHL SUB SWAP3 SWAP1 SWAP3 AND SWAP2 SWAP1 SWAP2 OR SWAP1 SSTORE PUSH2 0x84 JUMP JUMPDEST PUSH1 0x0 PUSH1 0x20 DUP3 DUP5 SUB SLT ISZERO PUSH2 0x66 JUMPI PUSH1 0x0 DUP1 REVERT JUMPDEST DUP2 MLOAD PUSH1 0x1 PUSH1 0x1 PUSH1 0xA0 SHL SUB DUP2 AND DUP2 EQ PUSH2 0x7D JUMPI PUSH1 0x0 DUP1 REVERT JUMPDEST SWAP4 SWAP3 POP POP POP JUMP JUMPDEST PUSH2 0xCE8 DUP1 PUSH2 0x93 PUSH1 0x0 CODECOPY PUSH1 0x0 RETURN INVALID PUSH1 0x80 PUSH1 0x40 MSTORE CALLVALUE DUP1 ISZERO PUSH2 0x10 JUMPI PUSH1 0x0 DUP1 REVERT JUMPDEST POP PUSH1 0x4 CALLDATASIZE LT PUSH2 0x9E JUMPI PUSH1 0x0 CALLDATALOAD PUSH1 0xE0 SHR DUP1 PUSH4 0x5FD4B08A GT PUSH2 0x66 JUMPI DUP1 PUSH4 0x5FD4B08A EQ PUSH2 0x153 JUMPI DUP1 PUSH4 0x8F283970 EQ PUSH2 0x166 JUMPI DUP1 PUSH4 0xA39FAC12 EQ PUSH2 0x179 JUMPI DUP1 PUSH4 0xBF40FAC1 EQ PUSH2 0x18F JUMPI DUP1 PUSH4 0xCD838F0F EQ PUSH2 0x1BA JUMPI PUSH1 0x0 DUP1 REVERT JUMPDEST DUP1 PUSH4 0x9C16160 EQ PUSH2 0xA3 JUMPI DUP1 PUSH4 0xD8E6E2C EQ PUSH2 0xCB JUMPI DUP1 PUSH4 0x12B164C8 EQ PUSH2 0xDA JUMPI DUP1 PUSH4 0x17D7DE7C EQ PUSH2 0xED JUMPI DUP1 PUSH4 0x2F9EC7BA EQ PUSH2 0x127 JUMPI JUMPDEST PUSH1 0x0 DUP1 REVERT JUMPDEST PUSH2 0xB6 PUSH2 0xB1 CALLDATASIZE PUSH1 0x4 PUSH2 0x820 JUMP JUMPDEST PUSH2 0x1CF JUMP JUMPDEST PUSH1 0x40 MLOAD SWAP1 ISZERO ISZERO DUP2 MSTORE PUSH1 0x20 ADD JUMPDEST PUSH1 0x40 MLOAD DUP1 SWAP2 SUB SWAP1 RETURN JUMPDEST PUSH1 0x40 MLOAD PUSH1 0x1 DUP2 MSTORE PUSH1 0x20 ADD PUSH2 0xC2 JUMP JUMPDEST PUSH2 0xB6 PUSH2 0xE8 CALLDATASIZE PUSH1 0x4 PUSH2 0x87E JUMP JUMPDEST PUSH2 0x216 JUMP JUMPDEST PUSH1 0x40 DUP1 MLOAD DUP1 DUP3 ADD SWAP1 SWAP2 MSTORE PUSH1 0x15 DUP2 MSTORE PUSH21 0x424B535F4F50535F52454749535445525F434F5245 PUSH1 0x58 SHL PUSH1 0x20 DUP3 ADD MSTORE JUMPDEST PUSH1 0x40 MLOAD PUSH2 0xC2 SWAP2 SWAP1 PUSH2 0x901 JUMP JUMPDEST PUSH2 0xB6 PUSH2 0x135 CALLDATASIZE PUSH1 0x4 PUSH2 0x914 JUMP JUMPDEST PUSH1 0x1 PUSH1 0x1 PUSH1 0xA0 SHL SUB AND PUSH1 0x0 SWAP1 DUP2 MSTORE PUSH1 0x3 PUSH1 0x20 MSTORE PUSH1 0x40 SWAP1 KECCAK256 SLOAD PUSH1 0xFF AND SWAP1 JUMP JUMPDEST PUSH2 0x11A PUSH2 0x161 CALLDATASIZE PUSH1 0x4 PUSH2 0x914 JUMP JUMPDEST PUSH2 0x2B8 JUMP JUMPDEST PUSH2 0xB6 PUSH2 0x174 CALLDATASIZE PUSH1 0x4 PUSH2 0x914 JUMP JUMPDEST PUSH2 0x364 JUMP JUMPDEST PUSH2 0x181 PUSH2 0x3B3 JUMP JUMPDEST PUSH1 0x40 MLOAD PUSH2 0xC2 SWAP3 SWAP2 SWAP1 PUSH2 0x989 JUMP JUMPDEST PUSH2 0x1A2 PUSH2 0x19D CALLDATASIZE PUSH1 0x4 PUSH2 0x9DC JUMP JUMPDEST PUSH2 0x567 JUMP JUMPDEST PUSH1 0x40 MLOAD PUSH1 0x1 PUSH1 0x1 PUSH1 0xA0 SHL SUB SWAP1 SWAP2 AND DUP2 MSTORE PUSH1 0x20 ADD PUSH2 0xC2 JUMP JUMPDEST PUSH2 0x1C2 PUSH2 0x598 JUMP JUMPDEST PUSH1 0x40 MLOAD PUSH2 0xC2 SWAP2 SWAP1 PUSH2 0xA11 JUMP JUMPDEST PUSH1 0x0 DUP1 SLOAD PUSH1 0x1 PUSH1 0x1 PUSH1 0xA0 SHL SUB AND CALLER EQ PUSH2 0x203 JUMPI PUSH1 0x40 MLOAD PUSH3 0x461BCD PUSH1 0xE5 SHL DUP2 MSTORE PUSH1 0x4 ADD PUSH2 0x1FA SWAP1 PUSH2 0xA24 JUMP JUMPDEST PUSH1 0x40 MLOAD DUP1 SWAP2 SUB SWAP1 REVERT JUMPDEST PUSH2 0x20E DUP5 DUP5 DUP5 PUSH2 0x671 JUMP JUMPDEST SWAP5 SWAP4 POP POP POP POP JUMP JUMPDEST PUSH1 0x0 DUP1 SLOAD PUSH1 0x1 PUSH1 0x1 PUSH1 0xA0 SHL SUB AND CALLER EQ PUSH2 0x241 JUMPI PUSH1 0x40 MLOAD PUSH3 0x461BCD PUSH1 0xE5 SHL DUP2 MSTORE PUSH1 0x4 ADD PUSH2 0x1FA SWAP1 PUSH2 0xA24 JUMP JUMPDEST PUSH2 0x2B1 DUP4 PUSH1 0x1 PUSH1 0x1 PUSH1 0xA0 SHL SUB AND PUSH4 0x17D7DE7C PUSH1 0x40 MLOAD DUP2 PUSH4 0xFFFFFFFF AND PUSH1 0xE0 SHL DUP2 MSTORE PUSH1 0x4 ADD PUSH1 0x0 PUSH1 0x40 MLOAD DUP1 DUP4 SUB DUP2 DUP7 GAS STATICCALL ISZERO DUP1 ISZERO PUSH2 0x282 JUMPI RETURNDATASIZE PUSH1 0x0 DUP1 RETURNDATACOPY RETURNDATASIZE PUSH1 0x0 REVERT JUMPDEST POP POP POP POP PUSH1 0x40 MLOAD RETURNDATASIZE PUSH1 0x0 DUP3 RETURNDATACOPY PUSH1 0x1F RETURNDATASIZE SWAP1 DUP2 ADD PUSH1 0x1F NOT AND DUP3 ADD PUSH1 0x40 MSTORE PUSH2 0x2AA SWAP2 SWAP1 DUP2 ADD SWAP1 PUSH2 0xA48 JUMP JUMPDEST DUP5 DUP5 PUSH2 0x671 JUMP JUMPDEST SWAP4 SWAP3 POP POP POP JUMP JUMPDEST PUSH1 0x1 PUSH1 0x1 PUSH1 0xA0 SHL SUB DUP2 AND PUSH1 0x0 SWAP1 DUP2 MSTORE PUSH1 0x4 PUSH1 0x20 MSTORE PUSH1 0x40 SWAP1 KECCAK256 DUP1 SLOAD PUSH1 0x60 SWAP2 SWAP1 PUSH2 0x2DF SWAP1 PUSH2 0xABF JUMP JUMPDEST DUP1 PUSH1 0x1F ADD PUSH1 0x20 DUP1 SWAP2 DIV MUL PUSH1 0x20 ADD PUSH1 0x40 MLOAD SWAP1 DUP2 ADD PUSH1 0x40 MSTORE DUP1 SWAP3 SWAP2 SWAP1 DUP2 DUP2 MSTORE PUSH1 0x20 ADD DUP3 DUP1 SLOAD PUSH2 0x30B SWAP1 PUSH2 0xABF JUMP JUMPDEST DUP1 ISZERO PUSH2 0x358 JUMPI DUP1 PUSH1 0x1F LT PUSH2 0x32D JUMPI PUSH2 0x100 DUP1 DUP4 SLOAD DIV MUL DUP4 MSTORE SWAP2 PUSH1 0x20 ADD SWAP2 PUSH2 0x358 JUMP JUMPDEST DUP3 ADD SWAP2 SWAP1 PUSH1 0x0 MSTORE PUSH1 0x20 PUSH1 0x0 KECCAK256 SWAP1 JUMPDEST DUP2 SLOAD DUP2 MSTORE SWAP1 PUSH1 0x1 ADD SWAP1 PUSH1 0x20 ADD DUP1 DUP4 GT PUSH2 0x33B JUMPI DUP3 SWAP1 SUB PUSH1 0x1F AND DUP3 ADD SWAP2 JUMPDEST POP POP POP POP POP SWAP1 POP SWAP2 SWAP1 POP JUMP JUMPDEST PUSH1 0x0 DUP1 SLOAD PUSH1 0x1 PUSH1 0x1 PUSH1 0xA0 SHL SUB AND CALLER EQ PUSH2 0x38F JUMPI PUSH1 0x40 MLOAD PUSH3 0x461BCD PUSH1 0xE5 SHL DUP2 MSTORE PUSH1 0x4 ADD PUSH2 0x1FA SWAP1 PUSH2 0xA24 JUMP JUMPDEST POP PUSH1 0x0 DUP1 SLOAD PUSH1 0x1 PUSH1 0x1 PUSH1 0xA0 SHL SUB NOT AND PUSH1 0x1 PUSH1 0x1 PUSH1 0xA0 SHL SUB DUP4 AND OR SWAP1 SSTORE PUSH1 0x1 JUMPDEST SWAP2 SWAP1 POP JUMP JUMPDEST PUSH1 0x1 SLOAD PUSH1 0x60 SWAP1 DUP2 SWAP1 PUSH8 0xFFFFFFFFFFFFFFFF DUP2 GT ISZERO PUSH2 0x3D3 JUMPI PUSH2 0x3D3 PUSH2 0x734 JUMP JUMPDEST PUSH1 0x40 MLOAD SWAP1 DUP1 DUP3 MSTORE DUP1 PUSH1 0x20 MUL PUSH1 0x20 ADD DUP3 ADD PUSH1 0x40 MSTORE DUP1 ISZERO PUSH2 0x3FC JUMPI DUP2 PUSH1 0x20 ADD PUSH1 0x20 DUP3 MUL DUP1 CALLDATASIZE DUP4 CALLDATACOPY ADD SWAP1 POP JUMPDEST POP SWAP1 POP PUSH1 0x0 JUMPDEST PUSH1 0x1 SLOAD DUP2 LT ISZERO PUSH2 0x488 JUMPI PUSH1 0x2 PUSH1 0x1 DUP3 DUP2 SLOAD DUP2 LT PUSH2 0x421 JUMPI PUSH2 0x421 PUSH2 0xAF9 JUMP JUMPDEST SWAP1 PUSH1 0x0 MSTORE PUSH1 0x20 PUSH1 0x0 KECCAK256 ADD PUSH1 0x40 MLOAD PUSH2 0x438 SWAP2 SWAP1 PUSH2 0xB0F JUMP JUMPDEST SWAP1 DUP2 MSTORE PUSH1 0x40 MLOAD SWAP1 DUP2 SWAP1 SUB PUSH1 0x20 ADD SWAP1 KECCAK256 SLOAD DUP3 MLOAD PUSH1 0x1 PUSH1 0x1 PUSH1 0xA0 SHL SUB SWAP1 SWAP2 AND SWAP1 DUP4 SWAP1 DUP4 SWAP1 DUP2 LT PUSH2 0x468 JUMPI PUSH2 0x468 PUSH2 0xAF9 JUMP JUMPDEST PUSH1 0x1 PUSH1 0x1 PUSH1 0xA0 SHL SUB SWAP1 SWAP3 AND PUSH1 0x20 SWAP3 DUP4 MUL SWAP2 SWAP1 SWAP2 ADD SWAP1 SWAP2 ADD MSTORE PUSH1 0x1 ADD PUSH2 0x402 JUMP JUMPDEST POP PUSH1 0x1 DUP2 DUP2 DUP1 SLOAD DUP1 PUSH1 0x20 MUL PUSH1 0x20 ADD PUSH1 0x40 MLOAD SWAP1 DUP2 ADD PUSH1 0x40 MSTORE DUP1 SWAP3 SWAP2 SWAP1 DUP2 DUP2 MSTORE PUSH1 0x20 ADD PUSH1 0x0 SWAP1 JUMPDEST DUP3 DUP3 LT ISZERO PUSH2 0x559 JUMPI DUP4 DUP3 SWAP1 PUSH1 0x0 MSTORE PUSH1 0x20 PUSH1 0x0 KECCAK256 ADD DUP1 SLOAD PUSH2 0x4CC SWAP1 PUSH2 0xABF JUMP JUMPDEST DUP1 PUSH1 0x1F ADD PUSH1 0x20 DUP1 SWAP2 DIV MUL PUSH1 0x20 ADD PUSH1 0x40 MLOAD SWAP1 DUP2 ADD PUSH1 0x40 MSTORE DUP1 SWAP3 SWAP2 SWAP1 DUP2 DUP2 MSTORE PUSH1 0x20 ADD DUP3 DUP1 SLOAD PUSH2 0x4F8 SWAP1 PUSH2 0xABF JUMP JUMPDEST DUP1 ISZERO PUSH2 0x545 JUMPI DUP1 PUSH1 0x1F LT PUSH2 0x51A JUMPI PUSH2 0x100 DUP1 DUP4 SLOAD DIV MUL DUP4 MSTORE SWAP2 PUSH1 0x20 ADD SWAP2 PUSH2 0x545 JUMP JUMPDEST DUP3 ADD SWAP2 SWAP1 PUSH1 0x0 MSTORE PUSH1 0x20 PUSH1 0x0 KECCAK256 SWAP1 JUMPDEST DUP2 SLOAD DUP2 MSTORE SWAP1 PUSH1 0x1 ADD SWAP1 PUSH1 0x20 ADD DUP1 DUP4 GT PUSH2 0x528 JUMPI DUP3 SWAP1 SUB PUSH1 0x1F AND DUP3 ADD SWAP2 JUMPDEST POP POP POP POP POP DUP2 MSTORE PUSH1 0x20 ADD SWAP1 PUSH1 0x1 ADD SWAP1 PUSH2 0x4AD JUMP JUMPDEST POP POP POP POP SWAP2 POP SWAP2 POP SWAP2 POP SWAP1 SWAP2 JUMP JUMPDEST PUSH1 0x0 PUSH1 0x2 DUP3 PUSH1 0x40 MLOAD PUSH2 0x579 SWAP2 SWAP1 PUSH2 0xB85 JUMP JUMPDEST SWAP1 DUP2 MSTORE PUSH1 0x40 MLOAD SWAP1 DUP2 SWAP1 SUB PUSH1 0x20 ADD SWAP1 KECCAK256 SLOAD PUSH1 0x1 PUSH1 0x1 PUSH1 0xA0 SHL SUB AND SWAP3 SWAP2 POP POP JUMP JUMPDEST PUSH1 0x60 PUSH1 0x1 DUP1 SLOAD DUP1 PUSH1 0x20 MUL PUSH1 0x20 ADD PUSH1 0x40 MLOAD SWAP1 DUP2 ADD PUSH1 0x40 MSTORE DUP1 SWAP3 SWAP2 SWAP1 DUP2 DUP2 MSTORE PUSH1 0x20 ADD PUSH1 0x0 SWAP1 JUMPDEST DUP3 DUP3 LT ISZERO PUSH2 0x668 JUMPI DUP4 DUP3 SWAP1 PUSH1 0x0 MSTORE PUSH1 0x20 PUSH1 0x0 KECCAK256 ADD DUP1 SLOAD PUSH2 0x5DB SWAP1 PUSH2 0xABF JUMP JUMPDEST DUP1 PUSH1 0x1F ADD PUSH1 0x20 DUP1 SWAP2 DIV MUL PUSH1 0x20 ADD PUSH1 0x40 MLOAD SWAP1 DUP2 ADD PUSH1 0x40 MSTORE DUP1 SWAP3 SWAP2 SWAP1 DUP2 DUP2 MSTORE PUSH1 0x20 ADD DUP3 DUP1 SLOAD PUSH2 0x607 SWAP1 PUSH2 0xABF JUMP JUMPDEST DUP1 ISZERO PUSH2 0x654 JUMPI DUP1 PUSH1 0x1F LT PUSH2 0x629 JUMPI PUSH2 0x100 DUP1 DUP4 SLOAD DIV MUL DUP4 MSTORE SWAP2 PUSH1 0x20 ADD SWAP2 PUSH2 0x654 JUMP JUMPDEST DUP3 ADD SWAP2 SWAP1 PUSH1 0x0 MSTORE PUSH1 0x20 PUSH1 0x0 KECCAK256 SWAP1 JUMPDEST DUP2 SLOAD DUP2 MSTORE SWAP1 PUSH1 0x1 ADD SWAP1 PUSH1 0x20 ADD DUP1 DUP4 GT PUSH2 0x637 JUMPI DUP3 SWAP1 SUB PUSH1 0x1F AND DUP3 ADD SWAP2 JUMPDEST POP POP POP POP POP DUP2 MSTORE PUSH1 0x20 ADD SWAP1 PUSH1 0x1 ADD SWAP1 PUSH2 0x5BC JUMP JUMPDEST POP POP POP POP SWAP1 POP SWAP1 JUMP JUMPDEST PUSH1 0x1 DUP1 SLOAD DUP1 DUP3 ADD DUP3 SSTORE PUSH1 0x0 SWAP2 DUP3 MSTORE PUSH32 0xB10E2D527612073B26EECDFD717E6A320CF44B4AFAC2B0732D9FCBE2B7FA0CF6 ADD PUSH2 0x6AB DUP6 DUP3 PUSH2 0xBF2 JUMP JUMPDEST POP PUSH1 0x1 PUSH1 0x1 PUSH1 0xA0 SHL SUB DUP4 AND PUSH1 0x0 SWAP1 DUP2 MSTORE PUSH1 0x4 PUSH1 0x20 MSTORE PUSH1 0x40 SWAP1 KECCAK256 PUSH2 0x6CE DUP6 DUP3 PUSH2 0xBF2 JUMP JUMPDEST POP DUP3 PUSH1 0x2 DUP6 PUSH1 0x40 MLOAD PUSH2 0x6E0 SWAP2 SWAP1 PUSH2 0xB85 JUMP JUMPDEST SWAP1 DUP2 MSTORE PUSH1 0x40 DUP1 MLOAD PUSH1 0x20 SWAP3 DUP2 SWAP1 SUB DUP4 ADD SWAP1 KECCAK256 DUP1 SLOAD PUSH1 0x1 PUSH1 0x1 PUSH1 0xA0 SHL SUB NOT AND PUSH1 0x1 PUSH1 0x1 PUSH1 0xA0 SHL SUB SWAP5 DUP6 AND OR SWAP1 SSTORE SWAP5 SWAP1 SWAP2 AND PUSH1 0x0 SWAP1 DUP2 MSTORE PUSH1 0x3 SWAP1 SWAP2 MSTORE SWAP3 SWAP1 SWAP3 KECCAK256 DUP1 SLOAD PUSH1 0xFF NOT AND SWAP2 ISZERO ISZERO SWAP2 SWAP1 SWAP2 OR SWAP1 SSTORE POP PUSH1 0x1 SWAP2 SWAP1 POP JUMP JUMPDEST PUSH4 0x4E487B71 PUSH1 0xE0 SHL PUSH1 0x0 MSTORE PUSH1 0x41 PUSH1 0x4 MSTORE PUSH1 0x24 PUSH1 0x0 REVERT JUMPDEST PUSH1 0x40 MLOAD PUSH1 0x1F DUP3 ADD PUSH1 0x1F NOT AND DUP2 ADD PUSH8 0xFFFFFFFFFFFFFFFF DUP2 GT DUP3 DUP3 LT OR ISZERO PUSH2 0x773 JUMPI PUSH2 0x773 PUSH2 0x734 JUMP JUMPDEST PUSH1 0x40 MSTORE SWAP2 SWAP1 POP JUMP JUMPDEST PUSH1 0x0 PUSH8 0xFFFFFFFFFFFFFFFF DUP3 GT ISZERO PUSH2 0x795 JUMPI PUSH2 0x795 PUSH2 0x734 JUMP JUMPDEST POP PUSH1 0x1F ADD PUSH1 0x1F NOT AND PUSH1 0x20 ADD SWAP1 JUMP JUMPDEST PUSH1 0x0 DUP3 PUSH1 0x1F DUP4 ADD SLT PUSH2 0x7B4 JUMPI PUSH1 0x0 DUP1 REVERT JUMPDEST DUP2 CALLDATALOAD PUSH2 0x7C7 PUSH2 0x7C2 DUP3 PUSH2 0x77B JUMP JUMPDEST PUSH2 0x74A JUMP JUMPDEST DUP2 DUP2 MSTORE DUP5 PUSH1 0x20 DUP4 DUP7 ADD ADD GT ISZERO PUSH2 0x7DC JUMPI PUSH1 0x0 DUP1 REVERT JUMPDEST DUP2 PUSH1 0x20 DUP6 ADD PUSH1 0x20 DUP4 ADD CALLDATACOPY PUSH1 0x0 SWAP2 DUP2 ADD PUSH1 0x20 ADD SWAP2 SWAP1 SWAP2 MSTORE SWAP4 SWAP3 POP POP POP JUMP JUMPDEST DUP1 CALLDATALOAD PUSH1 0x1 PUSH1 0x1 PUSH1 0xA0 SHL SUB DUP2 AND DUP2 EQ PUSH2 0x3AE JUMPI PUSH1 0x0 DUP1 REVERT JUMPDEST DUP1 CALLDATALOAD DUP1 ISZERO ISZERO DUP2 EQ PUSH2 0x3AE JUMPI PUSH1 0x0 DUP1 REVERT JUMPDEST PUSH1 0x0 DUP1 PUSH1 0x0 PUSH1 0x60 DUP5 DUP7 SUB SLT ISZERO PUSH2 0x835 JUMPI PUSH1 0x0 DUP1 REVERT JUMPDEST DUP4 CALLDATALOAD PUSH8 0xFFFFFFFFFFFFFFFF DUP2 GT ISZERO PUSH2 0x84C JUMPI PUSH1 0x0 DUP1 REVERT JUMPDEST PUSH2 0x858 DUP7 DUP3 DUP8 ADD PUSH2 0x7A3 JUMP JUMPDEST SWAP4 POP POP PUSH2 0x867 PUSH1 0x20 DUP6 ADD PUSH2 0x7F9 JUMP JUMPDEST SWAP2 POP PUSH2 0x875 PUSH1 0x40 DUP6 ADD PUSH2 0x810 JUMP JUMPDEST SWAP1 POP SWAP3 POP SWAP3 POP SWAP3 JUMP JUMPDEST PUSH1 0x0 DUP1 PUSH1 0x40 DUP4 DUP6 SUB SLT ISZERO PUSH2 0x891 JUMPI PUSH1 0x0 DUP1 REVERT JUMPDEST PUSH2 0x89A DUP4 PUSH2 0x7F9 JUMP JUMPDEST SWAP2 POP PUSH2 0x8A8 PUSH1 0x20 DUP5 ADD PUSH2 0x810 JUMP JUMPDEST SWAP1 POP SWAP3 POP SWAP3 SWAP1 POP JUMP JUMPDEST PUSH1 0x0 JUMPDEST DUP4 DUP2 LT ISZERO PUSH2 0x8CC JUMPI DUP2 DUP2 ADD MLOAD DUP4 DUP3 ADD MSTORE PUSH1 0x20 ADD PUSH2 0x8B4 JUMP JUMPDEST POP POP PUSH1 0x0 SWAP2 ADD MSTORE JUMP JUMPDEST PUSH1 0x0 DUP2 MLOAD DUP1 DUP5 MSTORE PUSH2 0x8ED DUP2 PUSH1 0x20 DUP7 ADD PUSH1 0x20 DUP7 ADD PUSH2 0x8B1 JUMP JUMPDEST PUSH1 0x1F ADD PUSH1 0x1F NOT AND SWAP3 SWAP1 SWAP3 ADD PUSH1 0x20 ADD SWAP3 SWAP2 POP POP JUMP JUMPDEST PUSH1 0x20 DUP2 MSTORE PUSH1 0x0 PUSH2 0x2B1 PUSH1 0x20 DUP4 ADD DUP5 PUSH2 0x8D5 JUMP JUMPDEST PUSH1 0x0 PUSH1 0x20 DUP3 DUP5 SUB SLT ISZERO PUSH2 0x926 JUMPI PUSH1 0x0 DUP1 REVERT JUMPDEST PUSH2 0x2B1 DUP3 PUSH2 0x7F9 JUMP JUMPDEST PUSH1 0x0 DUP3 DUP3 MLOAD DUP1 DUP6 MSTORE PUSH1 0x20 DUP1 DUP7 ADD SWAP6 POP PUSH1 0x20 DUP3 PUSH1 0x5 SHL DUP5 ADD ADD PUSH1 0x20 DUP7 ADD PUSH1 0x0 JUMPDEST DUP5 DUP2 LT ISZERO PUSH2 0x97C JUMPI PUSH1 0x1F NOT DUP7 DUP5 SUB ADD DUP10 MSTORE PUSH2 0x96A DUP4 DUP4 MLOAD PUSH2 0x8D5 JUMP JUMPDEST SWAP9 DUP5 ADD SWAP9 SWAP3 POP SWAP1 DUP4 ADD SWAP1 PUSH1 0x1 ADD PUSH2 0x94E JUMP JUMPDEST POP SWAP1 SWAP8 SWAP7 POP POP POP POP POP POP POP JUMP JUMPDEST PUSH1 0x40 DUP2 MSTORE PUSH1 0x0 PUSH2 0x99C PUSH1 0x40 DUP4 ADD DUP6 PUSH2 0x92F JUMP JUMPDEST DUP3 DUP2 SUB PUSH1 0x20 DUP5 DUP2 ADD SWAP2 SWAP1 SWAP2 MSTORE DUP5 MLOAD DUP1 DUP4 MSTORE DUP6 DUP3 ADD SWAP3 DUP3 ADD SWAP1 PUSH1 0x0 JUMPDEST DUP2 DUP2 LT ISZERO PUSH2 0x97C JUMPI DUP5 MLOAD PUSH1 0x1 PUSH1 0x1 PUSH1 0xA0 SHL SUB AND DUP4 MSTORE SWAP4 DUP4 ADD SWAP4 SWAP2 DUP4 ADD SWAP2 PUSH1 0x1 ADD PUSH2 0x9B7 JUMP JUMPDEST PUSH1 0x0 PUSH1 0x20 DUP3 DUP5 SUB SLT ISZERO PUSH2 0x9EE JUMPI PUSH1 0x0 DUP1 REVERT JUMPDEST DUP2 CALLDATALOAD PUSH8 0xFFFFFFFFFFFFFFFF DUP2 GT ISZERO PUSH2 0xA05 JUMPI PUSH1 0x0 DUP1 REVERT JUMPDEST PUSH2 0x20E DUP5 DUP3 DUP6 ADD PUSH2 0x7A3 JUMP JUMPDEST PUSH1 0x20 DUP2 MSTORE PUSH1 0x0 PUSH2 0x2B1 PUSH1 0x20 DUP4 ADD DUP5 PUSH2 0x92F JUMP JUMPDEST PUSH1 0x20 DUP1 DUP3 MSTORE PUSH1 0xA SWAP1 DUP3 ADD MSTORE PUSH10 0x61646D696E206F6E6C79 PUSH1 0xB0 SHL PUSH1 0x40 DUP3 ADD MSTORE PUSH1 0x60 ADD SWAP1 JUMP JUMPDEST PUSH1 0x0 PUSH1 0x20 DUP3 DUP5 SUB SLT ISZERO PUSH2 0xA5A JUMPI PUSH1 0x0 DUP1 REVERT JUMPDEST DUP2 MLOAD PUSH8 0xFFFFFFFFFFFFFFFF DUP2 GT ISZERO PUSH2 0xA71 JUMPI PUSH1 0x0 DUP1 REVERT JUMPDEST DUP3 ADD PUSH1 0x1F DUP2 ADD DUP5 SGT PUSH2 0xA82 JUMPI PUSH1 0x0 DUP1 REVERT JUMPDEST DUP1 MLOAD PUSH2 0xA90 PUSH2 0x7C2 DUP3 PUSH2 0x77B JUMP JUMPDEST DUP2 DUP2 MSTORE DUP6 PUSH1 0x20 DUP4 DUP6 ADD ADD GT ISZERO PUSH2 0xAA5 JUMPI PUSH1 0x0 DUP1 REVERT JUMPDEST PUSH2 0xAB6 DUP3 PUSH1 0x20 DUP4 ADD PUSH1 0x20 DUP7 ADD PUSH2 0x8B1 JUMP JUMPDEST SWAP6 SWAP5 POP POP POP POP POP JUMP JUMPDEST PUSH1 0x1 DUP2 DUP2 SHR SWAP1 DUP3 AND DUP1 PUSH2 0xAD3 JUMPI PUSH1 0x7F DUP3 AND SWAP2 POP JUMPDEST PUSH1 0x20 DUP3 LT DUP2 SUB PUSH2 0xAF3 JUMPI PUSH4 0x4E487B71 PUSH1 0xE0 SHL PUSH1 0x0 MSTORE PUSH1 0x22 PUSH1 0x4 MSTORE PUSH1 0x24 PUSH1 0x0 REVERT JUMPDEST POP SWAP2 SWAP1 POP JUMP JUMPDEST PUSH4 0x4E487B71 PUSH1 0xE0 SHL PUSH1 0x0 MSTORE PUSH1 0x32 PUSH1 0x4 MSTORE PUSH1 0x24 PUSH1 0x0 REVERT JUMPDEST PUSH1 0x0 DUP1 DUP4 SLOAD PUSH2 0xB1D DUP2 PUSH2 0xABF JUMP JUMPDEST PUSH1 0x1 DUP3 DUP2 AND DUP1 ISZERO PUSH2 0xB35 JUMPI PUSH1 0x1 DUP2 EQ PUSH2 0xB4A JUMPI PUSH2 0xB79 JUMP JUMPDEST PUSH1 0xFF NOT DUP5 AND DUP8 MSTORE DUP3 ISZERO ISZERO DUP4 MUL DUP8 ADD SWAP5 POP PUSH2 0xB79 JUMP JUMPDEST DUP8 PUSH1 0x0 MSTORE PUSH1 0x20 DUP1 PUSH1 0x0 KECCAK256 PUSH1 0x0 JUMPDEST DUP6 DUP2 LT ISZERO PUSH2 0xB70 JUMPI DUP2 SLOAD DUP11 DUP3 ADD MSTORE SWAP1 DUP5 ADD SWAP1 DUP3 ADD PUSH2 0xB57 JUMP JUMPDEST POP POP POP DUP3 DUP8 ADD SWAP5 POP JUMPDEST POP SWAP3 SWAP7 SWAP6 POP POP POP POP POP POP JUMP JUMPDEST PUSH1 0x0 DUP3 MLOAD PUSH2 0xB97 DUP2 DUP5 PUSH1 0x20 DUP8 ADD PUSH2 0x8B1 JUMP JUMPDEST SWAP2 SWAP1 SWAP2 ADD SWAP3 SWAP2 POP POP JUMP JUMPDEST PUSH1 0x1F DUP3 GT ISZERO PUSH2 0xBED JUMPI PUSH1 0x0 DUP2 PUSH1 0x0 MSTORE PUSH1 0x20 PUSH1 0x0 KECCAK256 PUSH1 0x1F DUP6 ADD PUSH1 0x5 SHR DUP2 ADD PUSH1 0x20 DUP7 LT ISZERO PUSH2 0xBCA JUMPI POP DUP1 JUMPDEST PUSH1 0x1F DUP6 ADD PUSH1 0x5 SHR DUP3 ADD SWAP2 POP JUMPDEST DUP2 DUP2 LT ISZERO PUSH2 0xBE9 JUMPI DUP3 DUP2 SSTORE PUSH1 0x1 ADD PUSH2 0xBD6 JUMP JUMPDEST POP POP POP JUMPDEST POP POP POP JUMP JUMPDEST DUP2 MLOAD PUSH8 0xFFFFFFFFFFFFFFFF DUP2 GT ISZERO PUSH2 0xC0C JUMPI PUSH2 0xC0C PUSH2 0x734 JUMP JUMPDEST PUSH2 0xC20 DUP2 PUSH2 0xC1A DUP5 SLOAD PUSH2 0xABF JUMP JUMPDEST DUP5 PUSH2 0xBA1 JUMP JUMPDEST PUSH1 0x20 DUP1 PUSH1 0x1F DUP4 GT PUSH1 0x1 DUP2 EQ PUSH2 0xC55 JUMPI PUSH1 0x0 DUP5 ISZERO PUSH2 0xC3D JUMPI POP DUP6 DUP4 ADD MLOAD JUMPDEST PUSH1 0x0 NOT PUSH1 0x3 DUP7 SWAP1 SHL SHR NOT AND PUSH1 0x1 DUP6 SWAP1 SHL OR DUP6 SSTORE PUSH2 0xBE9 JUMP JUMPDEST PUSH1 0x0 DUP6 DUP2 MSTORE PUSH1 0x20 DUP2 KECCAK256 PUSH1 0x1F NOT DUP7 AND SWAP2 JUMPDEST DUP3 DUP2 LT ISZERO PUSH2 0xC84 JUMPI DUP9 DUP7 ADD MLOAD DUP3 SSTORE SWAP5 DUP5 ADD SWAP5 PUSH1 0x1 SWAP1 SWAP2 ADD SWAP1 DUP5 ADD PUSH2 0xC65 JUMP JUMPDEST POP DUP6 DUP3 LT ISZERO PUSH2 0xCA2 JUMPI DUP8 DUP6 ADD MLOAD PUSH1 0x0 NOT PUSH1 0x3 DUP9 SWAP1 SHL PUSH1 0xF8 AND SHR NOT AND DUP2 SSTORE JUMPDEST POP POP POP POP POP PUSH1 0x1 SWAP1 DUP2 SHL ADD SWAP1 SSTORE POP JUMP INVALID LOG2 PUSH5 0x6970667358 0x22 SLT KECCAK256 0xD PUSH20 0x9C38FBEE476FA5C67C875D788FB8BFC2B12EC77F PUSH19 0xA92B723027D662099F64736F6C634300081600 CALLER "
				},
				"gasEstimates": {
					"creation": {
						"codeDepositCost": "660800",
						"executionCost": "infinite",
						"totalCost": "infinite"
					},
					"external": {
						"addAddress(string,address,bool)": "infinite",
						"addBKSVersionAddress(address,bool)": "infinite",
						"changeAdmin(address)": "infinite",
						"getAddress(string)": "infinite",
						"getAddresses()": "infinite",
						"getName()": "infinite",
						"getName(address)": "infinite",
						"getNames()": "infinite",
						"getVersion()": "200",
						"isSystemAddress(address)": "2627"
					},
					"internal": {
						"addAddressInternal(string memory,address,bool)": "infinite"
					}
				},
				"methodIdentifiers": {
					"addAddress(string,address,bool)": "09c16160",
					"addBKSVersionAddress(address,bool)": "12b164c8",
					"changeAdmin(address)": "8f283970",
					"getAddress(string)": "bf40fac1",
					"getAddresses()": "a39fac12",
					"getName()": "17d7de7c",
					"getName(address)": "5fd4b08a",
					"getNames()": "cd838f0f",
					"getVersion()": "0d8e6e2c",
					"isSystemAddress(address)": "2f9ec7ba"
				}
			},
			"storageLayout": {
				"storage": [
					{
						"astId": 78,
						"contract": "contracts/core/system/flattened/BKSOpsRegister_flattened.sol:BKSOpsRegister",
						"label": "admin",
						"offset": 0,
						"slot": "0",
						"type": "t_address"
					},
					{
						"astId": 81,
						"contract": "contracts/core/system/flattened/BKSOpsRegister_flattened.sol:BKSOpsRegister",
						"label": "names",
						"offset": 0,
						"slot": "1",
						"type": "t_array(t_string_storage)dyn_storage"
					},
					{
						"astId": 85,
						"contract": "contracts/core/system/flattened/BKSOpsRegister_flattened.sol:BKSOpsRegister",
						"label": "addressByName",
						"offset": 0,
						"slot": "2",
						"type": "t_mapping(t_string_memory_ptr,t_address)"
					},
					{
						"astId": 89,
						"contract": "contracts/core/system/flattened/BKSOpsRegister_flattened.sol:BKSOpsRegister",
						"label": "isSysAddress",
						"offset": 0,
						"slot": "3",
						"type": "t_mapping(t_address,t_bool)"
					},
					{
						"astId": 93,
						"contract": "contracts/core/system/flattened/BKSOpsRegister_flattened.sol:BKSOpsRegister",
						"label": "nameByAddress",
						"offset": 0,
						"slot": "4",
						"type": "t_mapping(t_address,t_string_storage)"
					}
				],
				"types": {
					"t_address": {
						"encoding": "inplace",
						"label": "address",
						"numberOfBytes": "20"
					},
					"t_array(t_string_storage)dyn_storage": {
						"base": "t_string_storage",
						"encoding": "dynamic_array",
						"label": "string[]",
						"numberOfBytes": "32"
					},
					"t_bool": {
						"encoding": "inplace",
						"label": "bool",
						"numberOfBytes": "1"
					},
					"t_mapping(t_address,t_bool)": {
						"encoding": "mapping",
						"key": "t_address",
						"label": "mapping(address => bool)",
						"numberOfBytes": "32",
						"value": "t_bool"
					},
					"t_mapping(t_address,t_string_storage)": {
						"encoding": "mapping",
						"key": "t_address",
						"label": "mapping(address => string)",
						"numberOfBytes": "32",
						"value": "t_string_storage"
					},
					"t_mapping(t_string_memory_ptr,t_address)": {
						"encoding": "mapping",
						"key": "t_string_memory_ptr",
						"label": "mapping(string => address)",
						"numberOfBytes": "32",
						"value": "t_address"
					},
					"t_string_memory_ptr": {
						"encoding": "bytes",
						"label": "string",
						"numberOfBytes": "32"
					},
					"t_string_storage": {
						"encoding": "bytes",
						"label": "string",
						"numberOfBytes": "32"
					}
				}
			},
			"userdoc": {
				"kind": "user",
				"methods": {},
				"version": 1
			}
		}
	}
}